:020000040000FA
:100000000C945E000C9486000C9486000C94860080
:100010000C9486000C9486000C9486000C94860048
:100020000C9486000C9486000C9486000C94860038
:100030000C9486000C9486000C9486000C94860028
:100040000C94390C0C9486000C94070C0C94E10B66
:100050000C9486000C9486000C9486000C94860008
:100060000C9486000C948600000000080002010039
:100070000003040700000000000000000000000072
:10008000250028002B0000000000240027002A0083
:10009000040404040404040402020202020203032E
:1000A0000303030301020408102040800102040836
:1000B0001020010204081020830CED1511241FBE2E
:1000C000CFEFD8E0DEBFCDBF26E0AAEAB1E001C0A5
:1000D0001D92AE31B207E1F711E0A0E0B1E0ECE52E
:1000E000F1E302C005900D92AA3AB107D9F710E0EA
:1000F000CDE5D0E004C02197FE010E94A016CC35CA
:10010000D107C9F70E94560D0C94A1180C94000059
:10011000E9EBF1E0A089B18982E08C93A485B585F3
:100120001C92A685B78580E18C93108EA489B58931
:1001300086E08C93A289B3898C9180618C93A2898B
:10014000B3898C9188608C93A289B3898C918068E3
:100150008C930288F389E02D80818F7D80830895C0
:10016000F89485B195B191602091160330911703F1
:10017000A901440F551F240F351FF901E95EFC4FFB
:100180002150310937FD98C095B94081441F44275B
:10019000441F482B45B9000000000000000000008B
:1001A00085B9000000000000000000000000000011
:1001B00095B9408146FB442740F9482B45B90000DA
:1001C000000000000000000085B9000000000000F1
:1001D000000000000000000095B9408145FB442765
:1001E00040F9482B45B90000000000000000000065
:1001F00085B90000000000000000000000000000C1
:1002000095B9408142954170482B45B900000000E6
:1002100000000000000085B90000000000000000A0
:1002200000000000000095B9408143FB442740F9DD
:10023000482B45B90000000000000000000085B90F
:10024000000000000000000000000000000095B960
:10025000408142FB442740F9482B45B9000000008B
:1002600000000000000085B9000000000000000050
:1002700000000000000095B9408146954170482B70
:1002800045B90000000000000000000085B9000032
:1002900000000000000000000000000095B9000010
:1002A00040814170482B45B900000000000000006B
:1002B000000085B9319764CF78940895FA01508190
:1002C0004181A2819C0194E0220F331F9A95E1F7AE
:1002D00080FD0DC0620F731FFB01EE0FFF1FE60FC5
:1002E000F71FEC5EFC4FA483558346830895C90134
:1002F000861B970BBC01615F7F4FEECF0F931F935F
:10030000CF93DF93EC018C01045F1F4F4EE053E06D
:10031000B80186E090E00E945E012D964EE053E029
:10032000BE0187E090E00E945E014EE053E0BE0116
:1003300088E090E00E945E014EE053E0B80189E061
:1003400090E0DF91CF911F910F910C945E010F937C
:100350001F93CF93DF93EC018C01075F1F4F4BE09E
:1003600053E0B80182E090E00E945E012A964BE0E3
:1003700053E0BE0182E090E00E945E014BE053E05A
:10038000B80183E090E00E945E014BE053E0BE01C3
:1003900083E090E00E945E014BE053E0B8018CE006
:1003A00090E00E945E014BE053E0BE018CE090E0E3
:1003B0000E945E014BE053E0B8018DE090E00E94A6
:1003C0005E014BE053E0BE018DE090E0DF91CF9104
:1003D0001F910F910C945E01089590910E038091EE
:1003E0000F032091100320935F0490936004809387
:1003F000610420936E0490936F04809370042093A3
:10040000BF049093C0048093C104089590910E039B
:1004100080910F032091100320936E0490936F043A
:1004200080937004089590910B0380910C032091A8
:100430000D0320935A0390935B0380935C032093F6
:1004400057039093580380935903209390039093FC
:10045000910380939203209393039093940380934A
:10046000950320939603909397038093980320938A
:10047000990390939A0380939B032093BD039093D9
:10048000BE038093BF032093BA039093BB03809372
:10049000BC032093B7039093B8038093B9032093D0
:1004A000B4039093B5038093B6032093F303909322
:1004B000F4038093F5032093F6039093F70380935E
:1004C000F80320933A0590933B0580933C052093D5
:1004D00037059093380580933905209370059093E4
:1004E0007105809372052093730590937405809332
:1004F0007505209376059093770580937805209372
:10050000790590937A0580937B0520939D059093C0
:100510009E0580939F0520939A0590939B05809359
:100520009C052093970590939805809399052093B7
:10053000940590939505809396052093D305909309
:10054000D4058093D5052093D6059093D705809345
:10055000D8050895909111038091120320911303FF
:100560002093870390938803809389032093C30388
:100570009093C4038093C5032093ED039093EE03FF
:100580008093EF03209340059093410580934205AB
:1005900020936A0590936B0580936C052093A605C4
:1005A0009093A7058093A805089590910E038091DC
:1005B0000F032091100320935F04909360048093B5
:1005C000610420936E0490936F04809370042093D1
:1005D000BF049093C0048093C1042093CE049093F1
:1005E000CF048093D004089590910B0380910C0365
:1005F00020910D032093930390939403809395038C
:100600002093960390939703809398032093B703C6
:100610009093B8038093B903209376059093770560
:100620008093780520939A0590939B0580939C0571
:10063000209397059093980580939905089590E0ED
:10064000FC01EC55FF4F249180579F4FFC01849192
:10065000882399F090E0880F991FFC01EA57FF4F1B
:10066000A591B491FC01E458FF4F859194918FB707
:10067000F894EC91E22BEC938FBF0895AF92BF9268
:10068000CF92DF92EF92FF920F931F93CF93DF935E
:100690006C017B018B01040F151FEB015E01AE188D
:1006A000BF08C017D10759F06991D601ED91FC91AF
:1006B0000190F081E02DC6010995892B79F7C501DC
:1006C000DF91CF911F910F91FF90EF90DF90CF902E
:1006D000BF90AF900895FC01538D448D252F30E0DD
:1006E000842F90E0821B930B541710F0CF9608953F
:1006F00001970895FC01918D828D981761F0A28D6C
:10070000AE0FBF2FB11D5D968C91928D9F5F9F7331
:10071000928F90E008958FEF9FEF0895FC01918DE7
:10072000828D981731F0828DE80FF11D858D90E054
:1007300008958FEF9FEF0895FC01918D228D892FF1
:1007400090E0805C9F4F821B91098F7399270895D9
:1007500089EB91E00E949C0321E0892B09F420E0C1
:10076000822F089580E090E0892B29F00E94A80351
:1007700081110C9400000895FC01A48DA80FB92FDD
:10078000B11DA35ABF4F2C91848D90E001968F73B9
:100790009927848FA689B7892C93A089B1898C91D8
:1007A000837080648C93938D848D981306C0028827
:1007B000F389E02D80818F7D80830895EF92FF92F1
:1007C0000F931F93CF93DF93EC0181E0888F9B8D74
:1007D0008C8D98131AC0E889F989808185FF15C02E
:1007E0009FB7F894EE89FF896083E889F989808151
:1007F0008370806480839FBF81E090E0DF91CF9120
:100800001F910F91FF90EF900895F62E0B8D10E041
:100810000F5F1F4F0F731127E02E8C8D8E110CC0B0
:100820000FB607FCFACFE889F989808185FFF5CFFB
:10083000CE010E94BC03F1CFEB8DEC0FFD2FF11D1B
:10084000E35AFF4FF0829FB7F8940B8FEA89FB8938
:1008500080818062CFCFCF93DF93EC01888D882396
:10086000B9F0AA89BB89E889F9898C9185FD03C013
:10087000808186FD0DC00FB607FCF7CF8C9185FFF8
:10088000F2CF808185FFEDCFCE010E94BC03E9CF7E
:10089000DF91CF91089590E0FC01E859FF4F24913A
:1008A000FC01EC55FF4F3491FC01E057FF4FE49100
:1008B000EE23C9F0222339F0233001F1A8F42130CE
:1008C00019F1223029F1F0E0EE0FFF1FE458FF4F3D
:1008D000A591B4918FB7F894EC91611126C0309531
:1008E0003E233C938FBF08952730A9F02830C9F0EC
:1008F000243049F7809180008F7D03C08091800073
:100900008F7780938000DFCF84B58F7784BDDBCF76
:1009100084B58F7DFBCF8091B0008F778093B0003E
:10092000D2CF8091B0008F7DF9CF3E2BDACF3FB789
:10093000F8948091AF019091B001A091B101B09174
:10094000B20126B5A89B05C02F3F19F00196A11D45
:10095000B11D3FBFBA2FA92F982F8827BC01CD0109
:10096000620F711D811D911D42E0660F771F881F68
:10097000991F4A95D1F708958F929F92AF92BF9297
:10098000CF92DF92EF92FF926B017C010E9497045D
:100990004B015C01C114D104E104F104B9F00E94DF
:1009A0009704681979098A099B09683E7340810593
:1009B000910580F321E0C21AD108E108F10888EE20
:1009C000880E83E0981EA11CB11CE4CFFF90EF902D
:1009D000DF90CF90BF90AF909F908F9008952FB7EA
:1009E000F8946091AB017091AC018091AD01909150
:1009F000AE012FBF08950E94B00064E670E080E071
:100A000090E00E94BC04E8E1F3E080E093E0DF01C5
:100A10009C011D9221503040E1F70895CF93DF9360
:100A2000EC010E94A701CE010E947E01DF91CF91CF
:100A30000C94FB040E94ED0190910B0380910C0338
:100A400020910D032093990390939A0380939B0325
:100A50002093B4039093B5038093B6032093790554
:100A600090937A0580937B05209394059093950548
:100A700080939605909111038091120320911303A6
:100A80002093930390939403809395032093BD0345
:100A90009093BE038093BF032093F0039093F103E0
:100AA0008093F203209320049093210480932204E6
:100AB00020930D0590930E0580930F0520933D051F
:100AC00090933E0580933F052093700590937105A8
:100AD0008093720520939A0590939B0580939C05C3
:100AE0000C94FB040E94ED0190910B0380910C0388
:100AF00020910D032093960390939703809398037E
:100B00002093B7039093B8038093B903209376059D
:100B10009093770580937805209397059093980597
:100B2000809399050C94FB040E94ED0181E090E014
:100B30000E94A7010C94FB040E94ED0190910B030D
:100B400080910C0320910D032093990390939A03B5
:100B500080939B032093B7039093B8038093B903CA
:100B60002093B4039093B5038093B6032093760546
:100B700090937705809378052093790590937A0573
:100B800080937B052093940590939505809396051B
:100B900090911103809112032091130320939003ED
:100BA000909391038093920320939D0590939E05CB
:100BB00080939F050C94FB040E94ED0190910B0320
:100BC00080910C0320910D032093990390939A0335
:100BD00080939B032093B7039093B8038093B9034A
:100BE0002093B4039093B5038093B60320937605C6
:100BF00090937705809378052093790590937A05F3
:100C000080937B052093940590939505809396059A
:100C1000909111038091120320911303209390036C
:100C200090939103809392032093C0039093C10308
:100C30008093C2032093ED039093EE038093EF0320
:100C400020934005909341058093420520936D05C4
:100C500090936E0580936F0520939D0590939E055C
:100C600080939F050C94FB040E94ED0190910B036F
:100C700080910C0320910D032093990390939A0384
:100C800080939B032093B7039093B8038093B90399
:100C90002093B4039093B5038093B6032093760515
:100CA00090937705809378052093790590937A0542
:100CB00080937B05209394059093950580939605EA
:100CC00090911103809112032091130320939003BC
:100CD00090939103809392032093C0039093C10358
:100CE0008093C2032093ED039093EE038093EF0370
:100CF00020932304909324048093250420930A05D1
:100D000090930B0580930C0520934005909341052B
:100D10008093420520936D0590936E0580936F0537
:100D200020939D0590939E0580939F050C94FB0452
:100D300090910B0380910C0320910D032093960357
:100D400090939703809398032093B7039093B803ED
:100D50008093B90320937605909377058093780567
:100D600020939705909398058093990590E080E0F3
:100D70000E947E010C94FB040E94980690E080E0A3
:100D80000E947E010E94FB040C94980690910B0334
:100D900080910C0320910D0320939303909394036F
:100DA000809395032093BA039093BB038093BC0375
:100DB00020937305909374058093750520939A058D
:100DC00090939B0580939C0590E080E00E947E01BB
:100DD0000C94FB0490910B0380910C0320910D0364
:100DE00020935A0390935B0380935C0320939003BA
:100DF00090939103809392032093BD039093BE033D
:100E00008093BF032093F3039093F4038093F5033F
:100E100020933A0590933B0580933C052093700501
:100E2000909371058093720520939D0590939E0584
:100E300080939F052093D3059093D4058093D50587
:100E400090E080E00E947E010C94FB040E94EA0680
:100E50000E94C6060C94BC0691E09093540385E072
:100E600080935503109256039093990380939A03AD
:100E700010929B039093940580939505109296058C
:100E80009093D9058093DA051092DB050C94EA065D
:100E90002F923F924F925F926F927F928F929F928A
:100EA000AF92BF92CF92DF92EF92FF920F931F9378
:100EB000CF93DF9381E1E82E83E0F82EF7011082D3
:100EC00002E113E0F8011082C3E1D3E085E08883FA
:100ED0009BE0692E93E0792EF30190812CE0422E65
:100EE00023E0522EF20180813DE0232E33E0332EA9
:100EF000F101208120935A0390935B0380935C035C
:100F0000209357039093580380935903209393039E
:100F10009093940380939503209396039093970363
:100F200080939803E9E9F3E02083EAE9F3E0908312
:100F3000EBE9F3E080832093BA039093BB038093A3
:100F4000BC032093B7039093B8038093B903E4EBF9
:100F5000F3E02083E5EBF3E09083E6EBF3E08083BE
:100F60002093F3039093F4038093F5032093F60307
:100F70009093F7038093F80320933A0590933B05F1
:100F800080933C052093370590933805809339056D
:100F900020937305909374058093750520937605CF
:100FA0009093770580937805E9E7F5E02083EAE7F9
:100FB000F5E09083EBE7F5E0808320939A0590932A
:100FC0009B0580939C0520939705909398058093AB
:100FD000990544E9842E45E0942EF401208355E9D7
:100FE000A52E55E0B52EF501908366E9C62E65E085
:100FF000D62EF60180832093D3059093D405809359
:10100000D5052093D6059093D7058093D8050E94E7
:101010000602F7019081F8018081288120936903FD
:1010200090936A0380936B032093840390938503CA
:10103000809386032093C9039093CA038093CB03C4
:101040002093640590936505809366052093A90518
:101050009093AA058093AB052093C4059093C50592
:101060008093C6050E94FB04F3019081F201808108
:10107000F1012081E9E9F3E02083EAE9F3E09083DC
:10108000EBE9F3E08083E4EBF3E02083E5EBF3E0CE
:101090009083E6EBF3E08083E9E7F5E02083EAE77D
:1010A000F5E09083EBE7F5E08083F4012083F50120
:1010B0009083F60180830E940602F7019081F80177
:1010C000808128812093660390936703809368034F
:1010D0002093870390938803809389032093C6030A
:1010E0009093C7038093C803209367059093680586
:1010F000809369052093A6059093A7058093A80582
:101100002093C7059093C8058093C9050E94FB04EE
:101110000E940602F7019081F801808128812093C6
:101120006303909364038093650320938A039093F1
:101130008B0380938C032093C3039093C403809309
:10114000C50320936A0590936B0580936C052093EB
:10115000A3059093A4058093A5052093CA059093B9
:10116000CB058093CC050E94FB04F3019081F20132
:101170008081F1012081E9E9F3E02083EAE9F3E0ED
:101180009083EBE9F3E08083E4EBF3E02083E5EB8D
:10119000F3E09083E6EBF3E08083E9E7F5E020837A
:1011A000EAE7F5E09083EBE7F5E08083F401208344
:1011B000F5019083F601808390910E0380910F03D7
:1011C0002091100320937104909372048093730410
:1011D00020936E0490936F04809370042093BC045A
:1011E0009093BD048093BE042093BF049093C004E9
:1011F0008093C104F7019081F801808128812093B8
:101200006003909361038093620320938D03909316
:101210008E0380938F032093A0059093A105809364
:10122000A2052093CD059093CE058093CF05DF9145
:10123000CF911F910F91FF90EF90DF90CF90BF90D3
:10124000AF909F908F907F906F905F904F903F9066
:101250002F900C94FB040E9413020E9406029091AE
:10126000110380911203209113032093690390933B
:101270006A0380936B032093840390938503809388
:1012800086032093C9039093CA038093CB032093D2
:10129000640590936505809366052093A905909356
:1012A000AA058093AB052093C4059093C505809350
:1012B000C6050C94FB040E94D5020E94AA029091DC
:1012C0000B0380910C0320910D03209396039093C0
:1012D0009703809398032093B7039093B803809368
:1012E000B903209376059093770580937805209332
:1012F000970590939805809399050C94FB040E94A0
:101300005B090E94D5020E94AA020E94FB040C9471
:101310005B0990E080E00E94A7010E94D5020C9436
:10132000FB049091110380911203209113032093E9
:10133000ED039093EE038093EF0320934005909389
:101340004105809342050C9489090E94D5020E94B0
:10135000F4029091110380911203209113032093C2
:10136000C3039093C4038093C5032093ED0390932C
:10137000EE038093EF032093400590934105809303
:10138000420520936A0590936B0580936C050C943D
:10139000FB040E94D5020E94F4020E94AA020C944F
:1013A000FB04FC0180819181009711F00C9442179D
:1013B0000895FC0101900020E9F73197AF01481B27
:1013C000590BBC0189EB91E00C943E03CF93DF9362
:1013D0000E94D909EC018BE191E00E94D9098C0FA0
:1013E0009D1FDF91CF9108958F929F92AF92BF92F0
:1013F0000F931F93CF93DF93CDB7DEB7A1970FB6AF
:10140000F894DEBF0FBECDBF19A2423008F44AE007
:101410008E010F5D1F4F842E912CB12CA12CA501A4
:1014200094010E944716E62FB901CA01EA30F4F48C
:10143000E05DD801EE938D01232B242B252B79F72A
:1014400090E080E0109719F0CD010E94D909A19693
:101450000FB6F894DEBF0FBECDBFDF91CF911F91C5
:101460000F91BF90AF909F908F900895E95CE1CF6E
:101470002091A6023091A7028091A0029091A10232
:1014800028173907F1F48091A2029091A30260918C
:101490009C0270919D020097D9F061157105A9F425
:1014A000232BC9F0FC01808190E008C0232B99F028
:1014B000FB01808190E091958195910921E0892B34
:1014C00009F020E081E0822708950E949118F6CF6C
:1014D0006115710559F721E0F5CF2091A0023091F7
:1014E000A102232B39F421E0FC018081882361F0E3
:1014F00020E00AC0BC0180919C0290919D020E9454
:10150000911821E0892BA1F7822F0895EF92FF9285
:101510000F931F93CF93DF9300D000D0CDB7DEB7EA
:1015200089EB91E00E947A0389EB91E00E947A03B3
:101530008E010F5F1F4F78018A3341F0F8018193CC
:101540008F0189EB91E00E947A03F6CFC7010E94D8
:10155000F515182F89EB91E00E947A038053990BBF
:101560008230910520F4682F812F0E944B0489EB73
:1015700091E00E947A038A3011F08D30C1F789EB37
:1015800091E00E948E038A3021F489EB91E00E9461
:101590007A030F900F900F900F90DF91CF911F91D2
:1015A0000F91FF90EF900895EF92FF920F931F938A
:1015B000CF93DF93EC017B018A01888199810097A9
:1015C00029F02A813B812417350788F4B8016F5F21
:1015D0007F4F0E94CB17009791F0998388831B83DC
:1015E0000A832C813D81232B11F4FC0110821D8381
:1015F0000C83B701888199810E949A180CC0888158
:101600009981009711F00E944217198218821D8259
:101610001C821B821A82CE01DF91CF911F910F9104
:10162000FF90EF900895FB0101900020E9F73197BA
:10163000AF01461B570B0C94D40AFC011182108297
:1016400013821282158214826115710551F0FB011B
:1016500001900020E9F73197AF01461B570B0C941E
:10166000D40A0895FF920F931F93CF93DF9300D076
:1016700000D000D0CDB7DEB701E08FE1F82E89EBC6
:1016800091E00E949C0310910803181619064CF56E
:10169000111127C089EB91E00E947A039091B80163
:1016A0009923D1F09091B701E92FF0E0E456FD4F76
:1016B0008E3351F084879F5F903218F0F092B7011B
:1016C000DECF9093B701DBCF14861092B801109251
:1016D000B70100930803D3CF8C3389F60093B80188
:1016E000CECF112309F447C068EA72E088EC92E09B
:1016F0000E949A186EE171E088EC92E00E94131645
:10170000BC0188EE92E00E949A186EE171E090E0D0
:1017100080E00E9413160E94F51590930A038093AF
:10172000090368EE72E0CE0101960E941D0B8091C4
:101730009C0290919D02009769F169817A816115FF
:10174000710531F140919E0250919F022D813E81A1
:1017500042175307E8F00E949A188D819E8190935A
:10176000A1028093A0021E821D82CE0101960E94DA
:10177000D10910920803812F26960FB6F894DEBF88
:101780000FBECDBFDF91CF911F910F91FF900895B4
:101790000E94421789819A8190939D0280939C02B6
:1017A0008B819C8190939F0280939E028D819E816C
:1017B0009093A1028093A0021A8219821C821B823C
:1017C000D2CF1F920F920FB60F9211242F933F93F7
:1017D0004F935F936F937F938F939F93AF93BF9339
:1017E000EF93FF9389EB91E00E94BC03FF91EF918F
:1017F000BF91AF919F918F917F916F915F914F9129
:101800003F912F910F900FBE0F901F9018951F9230
:101810000F920FB60F9211242F938F939F93EF93F4
:10182000FF93E091C901F091CA018081E091CF015D
:10183000F091D00182FD1BC090818091D2018F5F19
:101840008F732091D301821741F0E091D201F0E033
:10185000E754FE4F958F8093D201FF91EF919F91B6
:101860008F912F910F900FBE0F901F901895808130
:10187000F4CF1F920F920FB60F9211242F933F9324
:101880008F939F93AF93BF938091AB019091AC01E5
:10189000A091AD01B091AE013091AA0123E0230FD8
:1018A0002D3758F50196A11DB11D2093AA018093F3
:1018B000AB019093AC01A093AD01B093AE018091C8
:1018C000AF019091B001A091B101B091B201019628
:1018D000A11DB11D8093AF019093B001A093B10100
:1018E000B093B201BF91AF919F918F913F912F9192
:1018F0000F900FBE0F901F90189526E8230F0296A9
:10190000A11DB11DD2CF1092BC011092BB0188EE77
:1019100093E0A0E0B0E08093BD019093BE01A0935E
:10192000BF01B093C0018DE091E09093BA01809324
:10193000B90185EC90E09093C6018093C50184ECD9
:1019400090E09093C8018093C70180EC90E0909361
:10195000CA018093C90181EC90E09093CC018093FF
:10196000CB0182EC90E09093CE018093CD0186EC88
:1019700090E09093D0018093CF011092D201109209
:10198000D3011092D4011092D50110925C021092F2
:101990005D0210925E0210925F021092600210923D
:1019A000610210926202109263021092640210921D
:1019B00065021092660210926702109268021092FD
:1019C000690210926A0210926B026DE171E08CE97B
:1019D00092E00E941D0B6DE171E082EA92E00E94AC
:1019E0001D0BE8EEF2E080E2DF011D928A95E9F737
:1019F00010920B0310920C0384E680930D038091E8
:101A0000060190910701A091080180930E03909325
:101A10000F03A09310038AE0809311031092120326
:101A20001092130380E091E09093170380931603C4
:101A300088E090E09093150380931403E8E1F3E0CD
:101A400080E093E0DF019C011D9221503040E1F7DE
:101A50000E94B0001092080360E271E08CE992E00D
:101A60000E94130B60919C0270919D02611571059B
:101A700041F04091A0025091A10282EA92E00C94C0
:101A8000D40A8091A2029091A302009711F00E94C3
:101A900042171092A3021092A2021092A702109273
:101AA000A6021092A5021092A4020895789484B51B
:101AB000826084BD84B5816084BD85B5826085BD4A
:101AC00085B5816085BD80916E00816080936E00D8
:101AD00010928100809181008260809381008091CA
:101AE000810081608093810080918000816080937B
:101AF00080008091B10084608093B1008091B0003B
:101B000081608093B00080917A00846080937A0035
:101B100080917A00826080937A0080917A0081605F
:101B200080937A0080917A00806880937A00109286
:101B3000C100109298021092990210929A0210928B
:101B40009B02109258021092590210925A0210925F
:101B50005B020E94EF046B017C014B015C0128EBEE
:101B6000820E2BE0921EA11CB11C0E94EF046C158A
:101B70007D058E059F0528F086169706A806B906EE
:101B8000A0F768EE73E080E090E00E94BC040E9441
:101B900088000E94EF04609358027093590280936A
:101BA0005A0290935B0288E291E00E94D9090E9458
:101BB000EF046B017C014B015C013AE0830E911C48
:101BC000A11CB11C0E94EF046C157D058E059F05BC
:101BD00028F086169706A806B906A0F781E080933C
:101BE0006C020E94EF046093580270935902809334
:101BF0005A0290935B0289E391E00E94D90988E040
:101C00000E941F038DE00E941F03E8E1F3E080E0E3
:101C100093E0DF019C011D9221503040E1F70E94CA
:101C2000880061E08DE00E944B0489EB91E00E9406
:101C30009C0318161906CCF789EB91E00E947A03F1
:101C4000893621F480E491E00E94E6090E94EF04C5
:101C50006B01770FEE08FF0889EB91E00E949C036F
:101C60001816190664F00E94EF046C197D098E099C
:101C70009F09693E73408105910570F3D6CF89EBCA
:101C800091E00E947A03843681F660E08DE00E9444
:101C90004B0485E491E00E94D90960E0262E60E0C3
:101CA000362E74EF872E99249394A12CB12CD5E075
:101CB0000CE3CEE113E00E94EF04672B682B692B45
:101CC00009F4EDC00E94EF04C090B301D090B401BC
:101CD000E090B501F090B6016C157D058E059F056D
:101CE00008F4C5C3C090B301D090B401E090B50131
:101CF000F090B6019B01AC012C193D094E095F091A
:101D000069017A0138EEC31633E0D306E104F10429
:101D100008F4CDC06093B3017093B4018093B50112
:101D20009093B6018092640290926502A09266023E
:101D3000B0926702109268021092690210926A02D1
:101D400010926B0280915C0290915D02A0915E0204
:101D5000B0915F028093600290936102A09362024F
:101D6000B09363020E94EF0460935C0270935D0283
:101D700080935E0290935F0289EB91E00E948E0354
:101D8000843611F40E94860A0E94EF046093580280
:101D90007093590280935A0290935B020E94EF0461
:101DA0006B017C018EE591E00E94D9094AE061E077
:101DB00070E080E090E00E94F40985E691E00E94E6
:101DC000D9094AE0C701B6010E94F40987E691E00B
:101DD0000E94D90980915C0290915D02A0915E02FF
:101DE000B0915F02A7019601281B390B4A0B5B0BD0
:101DF000CA01B9014AE00E94F40987E691E00E9415
:101E0000D90960915C0270915D0280915E029091AF
:101E10005F02C0906002D0906102E0906202F09098
:101E200063026C197D098E099F094AE00E94F4093A
:101E300089E691E00E94D9090E94EF044AE00E94DD
:101E4000F4098BE691E00E94E6090E94EF042B0161
:101E50003C017C016B0135E0C30ED11CE11CF11C7F
:101E60000E94EF04641575058605970528F0C616CF
:101E7000D706E806F906A0F789EB91E00E948E03E9
:101E8000843611F40E94860A0E94EF0460935C027B
:101E900070935D0280935E0290935F0208C00E947F
:101EA000EF04623071058105910508F00BCF80E2E7
:101EB00091E00E946D0A882309F4E2C260E271E0B9
:101EC00082EA92E00E94130B90910E0380910F031F
:101ED0002091100320934D0490934E0480934F045F
:101EE00020935004909351048093520420937A04D9
:101EF00090937B0480937C040E94FB0490910E03DA
:101F000080910F032091100320935004909351046B
:101F10008093520420937A0490937B0480937C04F2
:101F20002093B3049093B4048093B5040E94FB04FF
:101F300090910E0380910F032091100320937A0457
:101F400090937B0480937C042093B3049093B40417
:101F50008093B5042093DD049093DE048093DF0426
:101F60000E94FB0490910E0380910F0320911003B7
:101F70002093B3049093B4048093B5042093E004B9
:101F80009093E1048093E2042093DD049093DE04B7
:101F90008093DF040E94FB0490910E0380910F0355
:101FA000209110032093AA049093AB048093AC0477
:101FB0002093E0049093E1048093E2042093DD04F5
:101FC0009093DE048093DF040E94FB0490910E0343
:101FD00080910F0320911003209383049093840435
:101FE000809385042093AA049093AB048093AC045F
:101FF0002093E0049093E1048093E2040E94FB04A8
:1020000090910E0380910F032091100320934D04B3
:1020100090934E0480934F04209383049093840400
:10202000809385042093AA049093AB048093AC041E
:102030000E94FB0490910E0380910F0320911003E6
:1020400020934D0490934E0480934F0420935004AA
:1020500090935104809352042093830490938404BA
:10206000809385040E94FB040E94320B882309F4AC
:10207000F2C190910E0380910F03209110032093E1
:1020800050049093510480935204209353049093EE
:1020900054048093550420935604909357048093DE
:1020A00058040E94FB0490910E0380910F0320912D
:1020B0001003209356049093570480935804209360
:1020C000590490935A0480935B0420935C0490938A
:1020D0005D0480935E040E94FB0490910E03809146
:1020E0000F03209110032093590490935A04809376
:1020F0005B0420935C0490935D0480935E042093C2
:102100006E0490936F04809370040E94FB0490917E
:102110000E0380910F032091100320935C04909391
:102120005D0480935E0420936E0490936F0480930B
:1021300070042093BF049093C0048093C1040E9454
:10214000FB0410920B0310920C0310930D0390915B
:102150000E0380910F032091100320936E0490933F
:102160006F04809370042093BF049093C004809305
:10217000C1042093D1049093D2048093D30410938C
:10218000740410927504109276041093B90410929E
:10219000BA041092BB040E94FB0490910E0380913C
:1021A0000F03209110032093BF049093C0048093E9
:1021B000C1042093D4049093D5048093D604209333
:1021C000D1049093D2048093D30490910B03809117
:1021D0000C0320910D032093560490935704809391
:1021E00058042093D7049093D8048093D9040E9474
:1021F000FB0490910E0380910F0320911003209314
:10220000B6049093B7048093B8042093D4049093B9
:10221000D5048093D6042093D1049093D204809364
:10222000D30490910B0380910C0320910D03209314
:102230001704909318048093190420931605909323
:102240001705809318050E94FB0490910E0380915E
:102250000F032091100320937704909378048093C8
:1022600079042093B6049093B7048093B804209324
:10227000D4049093D5048093D60490910B0380915D
:102280000C0320910D032093F6039093F7038093A2
:10229000F8032093370590933805809339050E9401
:1022A000FB0410920B0310920C03D0930D0390913A
:1022B0000E0380910F0320911003209359049093F3
:1022C0005A0480935B04209377049093780480935E
:1022D00079042093B6049093B7048093B804D09304
:1022E000B7031092B8031092B903D09376051092F9
:1022F0007705109278050E94FB0410920B03109250
:102300000C038AE080930D0320910E0390910F033C
:10231000309110033093590420935A0490935B0436
:1023200030935C0420935D0490935E0430937704B3
:1023300020937804909379048093960310929703E6
:10234000109298038093B7031092B8031092B903C8
:102350008093760510927705109278058093970503
:1023600010929805109299050E94FB0410920B039D
:1023700010920C03C0930D0390910E0380910F03F4
:10238000209110032093590490935A0480935B0486
:1023900020935C0490935D0480935E0420936E040C
:1023A00090936F0480937004C093960310929703E8
:1023B00010929803C093BA031092BB031092BC030F
:1023C000C093B7031092B8031092B903C09373057A
:1023D0001092740510927505C093760510927705DA
:1023E00010927805C0939705109298051092990560
:1023F0000E94FB0410920B0310920C0300930D0338
:1024000090910E0380910F032091100320935C04A0
:1024100090935D0480935E0420936E0490936F0408
:10242000809370042093BF049093C0048093C104F0
:1024300090E080E00E94A7010E94FB0410920B0331
:1024400010920C0344E640930D0390E080E00E945C
:102450000E050E94320B2114310409F42CCC0E9489
:10246000A803882309F425CC0E94000022CC6093A5
:10247000B3017093B4018093B5019093B60132CC4F
:1024800082E791E00E946D0A8823E1F082E791E003
:102490000E94E60962E771E082EA92E00E94130B73
:1024A00054E1E52EF12C90E080E00E940E050E94A0
:1024B000320B8111D0CF51E0E51AF108A1F70E944B
:1024C000BC06C9CF88E791E00E946D0A882309F411
:1024D000A7C088E791E00E94E6090E94380A882395
:1024E00009F454C08AE080931103109212031092F1
:1024F00013030E94980690E080E00E947E01909174
:102500000B0380910C0320910D032093960390936D
:102510009703809398032093B7039093B803809315
:10252000B9032093760590937705809378052093DF
:10253000970590939805809399050E94D5020E9473
:10254000FB04C0930B0310920C038BE480930D03E8
:102550000E94890900930B0310920C03A2E3A0933D
:102560000D030E949109BAE5B0930B0310920C037E
:1025700029E120930D030E94A50938E730930B034E
:1025800010920C0310920D030E94C90968E771E0D4
:1025900082EA92E00E94130B8AE08093110310926A
:1025A00012031092130344E1E42EF12C0E94C90996
:1025B0000E94320B882369F18AE080931103109204
:1025C0001203109213030E947F094AE540930B0304
:1025D00010920C0359E150930D030E94A50900933A
:1025E0000B0310920C0382E380930D030E94910968
:1025F000C0930B0310920C03ABE4A0930D030E9455
:10260000890910920B0310920C03B4E6B0930D03EA
:1026100022CF21E0E21AF10849F60E947F091BCF80
:102620008EE791E00E946D0A882309F448C18EE785
:1026300091E00E94E6090E94380A882309F412C139
:102640001092110310921203D093130390E080E0D4
:102650000E94A70190910E0380910F032091100317
:1026600020937104909372048093730420936E04FA
:1026700090936F04809370042093BC049093BD04E6
:102680008093BE042093BF049093C0048093C10440
:102690000E94FB0490910B0380910C0320910D0389
:1026A00020935A0390935B0380935C03209357031A
:1026B0009093580380935903209390039093910330
:1026C00080939203209393039093940380939503B4
:1026D0002093960390939703809398032093BD03D0
:1026E0009093BE038093BF032093BA039093BB03E0
:1026F0008093BC032093B7039093B8038093B903EE
:102700002093700590937105809372052093730553
:1027100090937405809375052093760590937705C3
:102720008093780520939D0590939E0580939F0547
:1027300020939A0590939B0580939C052093970581
:1027400090939805809399052093D3059093D40591
:102750008093D5052093D6059093D7058093D8050F
:102760000E9406029091110380911203209113039D
:1027700020938D0390938E0380938F032093C00347
:102780009093C1038093C20320936D0590936E05CF
:1027900080936F052093A0059093A1058093A205D7
:1027A0000E94FB040E9413020E94060290911103F2
:1027B0008091120320911303209363039093640389
:1027C0008093650320938A0390938B0380938C03FB
:1027D0002093C3039093C4038093C50320936A0599
:1027E00090936B0580936C052093A3059093A405AB
:1027F0008093A5052093CA059093CB058093CC05C3
:102800000E94FB040E9413020E9406029091110391
:102810008091120320911303209366039093670322
:1028200080936803209387039093880380938903A0
:102830002093C6039093C7038093C8032093670532
:1028400090936805809369052093A6059093A7054A
:102850008093A8052093C7059093C8058093C90568
:102860000E94FB046EE771E082EA92E00E94130B83
:10287000C0900903D0900A03F12CE12C3FEFC3165E
:10288000D30639F40E94320B811116C00E942B0925
:10289000F9CFEC14FD0454F40E942B090E94320B72
:1028A00081110AC04FEFE41AF40AF3CF62E771E036
:1028B0008CE992E00E94130B0E944807CCCD87E878
:1028C00091E00E946D0A8823C9F187E891E00E9497
:1028D000E6090E94380A882341F00E94BC060E9443
:1028E000C6060E94EA060E942C0767E871E082EAA9
:1028F00092E00E94130B8091090390910A0334E146
:10290000E32EF12C019639F40E94320B811113C091
:102910000E942C07F9CF0E942C070E94320B8111D4
:102920000AC081E0E81AF108B1F762E771E08CE9CA
:1029300092E00E94130B0E9426078DCD86E991E05C
:102940000E946D0A882309F483C086E991E00E9401
:10295000E6090E94380A8823A1F010921103109210
:102960001203D09313030E9472050E94ED010E948E
:10297000FB040E9494050E949C050E94DC050E94B5
:10298000340666E971E082EA92E00E94130B24E1CA
:10299000E22EF12C0E9434060E94320B8823A9F00B
:1029A0001092110310921203D09313030E94340665
:1029B0000E94DC050E949C050E9494050E94ED0186
:1029C0000E94FB040E94720546CDA1E0EA1AF108BC
:1029D00009F70E941A050E94ED0190911103809160
:1029E00012032091130320939303909394038093F5
:1029F00095032093BD039093BE038093BF03209360
:102A0000F0039093F1038093F203209320049093BA
:102A100021048093220420930D0590930E0580934A
:102A20000F0520933D0590933E0580933F0520932D
:102A30007005909371058093720520939A05909389
:102A40009B0580939C050E94FB040E941A0503CD00
:102A50008AE991E00E946D0A882309F466C08AE938
:102A600091E00E94E6096AE971E082EA92E00E9440
:102A7000130B94E1E92EF12C90E080E00E94A70175
:102A80000E94ED010E94FB040E94320B8111E3CCF5
:102A9000B1E0EB1AF10881F790910B0380910C03E0
:102AA00020910D03209396039093970380939803AE
:102AB0002093B7039093B8038093B90320937605CE
:102AC00090937705809378052093970590939805C8
:102AD000809399050E94ED010E94FB040E94ED0184
:102AE0000E94FB0490910B0380910C0320910D0335
:102AF0002093960390939703809398032093B703B2
:102B00009093B8038093B90320937605909377054B
:102B10008093780520939705909398058093990565
:102B20000E94ED010E94FB0496CC82EA91E00E9493
:102B30006D0A882309F44AC082EA91E00E94E609FE
:102B400062EA71E082EA92E00E94130BF12CE12C20
:102B5000C7010E940E0521E0E21AF10837EFE316E3
:102B60003FEFF306A9F787EF9FEF0E94A70186EFDB
:102B70009FEF0E947E010E94FB0487EFE82EFF2456
:102B8000FA94C7010E940E05E114F104D1F04FEF51
:102B9000E41AF40A52E0E516F10499F783E090E0B4
:102BA0000E94A70182E090E00E947E010E94FB0447
:102BB00082E090E00E940E0581E090E00E940E0508
:102BC0004ACC0E94320B882311F345CC62E771E0B6
:102BD0008CE992E00E94130B3ECC82EA92E00E94C4
:102BE000D1098CE992E00C94D109FC01882799273E
:102BF000E89421912032E9F3293010F02E30C8F307
:102C00002B3241F02D3239F4689404C00E943F16F3
:102C1000820F911D219120532A30C0F31EF490950C
:102C200081959F4F089548E156E00E941816089537
:102C3000FA01A191B081009719F41097E1F0CD014C
:102C4000DC01CD010D90002011F4C00113C0FB0187
:102C50002191222319F02015D9F7F3CFFB012191FF
:102C6000201519F41E92119606C02223C1F70D906B
:102C70000020A1F7D001FA01A193B08308957AE072
:102C8000979F902D879F802D910D11240895A1E28B
:102C90001A2EAA1BBB1BFD010DC0AA1FBB1FEE1FD6
:102CA000FF1FA217B307E407F50720F0A21BB30B21
:102CB000E40BF50B661F771F881F991F1A9469F79D
:102CC00060957095809590959B01AC01BD01CF01F9
:102CD00008952F923F924F925F926F927F928F92C0
:102CE0009F92AF92BF92CF92DF92EF92FF920F939B
:102CF0001F93CF93DF93CDB7DEB7CA1BDB0B0FB6A5
:102D0000F894DEBF0FBECDBF09942A883988488861
:102D10005F846E847D848C849B84AA84B984C884F7
:102D2000DF80EE80FD800C811B81AA81B981CE0FEE
:102D3000D11D0FB6F894DEBF0FBECDBFED010895D3
:102D4000EE0FFF1F0590F491E02D09940F931F9350
:102D5000CF93DF938230910510F482E090E0E09110
:102D60001C06F0911D0630E020E0B0E0A0E03097B6
:102D700099F42115310509F44AC0281B390B243078
:102D80003105D8F58A819B816115710589F1FB01B7
:102D900093838283FE0111C040815181028113819E
:102DA00048175907E0F04817590799F4109761F050
:102DB00012960C93129713961C933296CF01DF91C3
:102DC000CF911F910F91089500931C0610931D063B
:102DD000F4CF2115310551F04217530738F0A901FE
:102DE000DB019A01BD01DF01F801C1CFEF01F9CF8D
:102DF00090931D0680931C06CDCFFE01E20FF31FBA
:102E0000819391932250310939832883D7CF209120
:102E10001A0630911B06232B41F4209102013091B8
:102E2000030130931B0620931A0620910001309174
:102E300001012115310541F42DB73EB74091040140
:102E400050910501241B350BE0911A06F0911B06E9
:102E5000E217F307A0F42E1B3F0B2817390778F071
:102E6000AC014E5F5F4F2417350748F04E0F5F1FD0
:102E700050931B0640931A06819391939FCFF0E0E5
:102E8000E0E09CCFCF93DF930097E9F0FC0132970D
:102E900013821282A0911C06B0911D06ED0130E054
:102EA00020E01097A1F420813181820F931F20919F
:102EB0001A0630911B062817390709F061C0F093F4
:102EC0001B06E0931A06DF91CF910895EA01CE1711
:102ED000DF07E8F54A815B819E0141155105B1F795
:102EE000E901FB83EA8349915991C40FD51FEC177F
:102EF000FD0761F4808191810296840F951FE9019D
:102F000099838883828193819B838A83F0E0E0E0C8
:102F100012968D919C9113970097B9F52D913C9144
:102F20001197CD010296820F931F20911A063091BE
:102F30001B062817390739F6309751F510921D06F0
:102F400010921C06B0931B06A0931A06BCCFD38325
:102F5000C28340815181840F951FC817D90761F43E
:102F60004E5F5F4F88819981480F591F518340837D
:102F70008A819B81938382832115310509F0B0CF2B
:102F8000F0931D06E0931C069ECFFD01DC01C0CF2F
:102F900013821282D7CFB0E0A0E0E1EDF7E10C940C
:102FA0006B168C01009751F4CB010E94A6168C0180
:102FB000C801CDB7DEB7E0E10C948716FC01E60F3F
:102FC000F71F9C0122503109E217F30708F49DC056
:102FD000D901CD91DC911197C617D70798F0C5306C
:102FE000D10530F3CE0104978617970708F3C61B67
:102FF000D70B2297C193D1936D937C93CF010E94FD
:103000004217D6CF5B01AC1ABD0A4C018C0E9D1E37
:10301000A0911C06B0911D06512C412CF12CE12CE5
:10302000109731F580911A0690911B068815990525
:1030300009F05CC04616570608F058C080910001A0
:1030400090910101009741F48DB79EB74091040122
:1030500050910501841B950BE817F90708F055C03E
:10306000F0931B06E0931A06F90171836083A0CFE9
:103070008D919C91119712966C90129713967C905B
:103080001397A815B90559F56C0142E0C40ED11C7F
:10309000CA14DB0420F1AC014A195B09DA0112966B
:1030A000159780F06282738251834083D9016D93BA
:1030B0007C93E114F10471F0D7011396FC93EE9325
:1030C000129776CF22968C0F9D1FF90191838083F2
:1030D000F301EFCFF0931D06E0931C0669CF48166D
:1030E000590608F42C017D01D3019ACFCB010E942F
:1030F000A6167C01009749F0AE01B8010E9488181D
:10310000C8010E944217870153CF10E000E050CF62
:10311000FB01DC0102C001900D9241505040D8F7F4
:103120000895FB01DC018D91019080190110D9F304
:10313000990B0895FB01DC0101900D920020E1F74D
:10314000089510E0CDE5D0E004C0FE010E94A01675
:103150002196CE35D107C9F7F894FFCF00001E069F
:1031600080000A0A0A00000000DE033E036B032B06
:10317000049C037A038E030D0A002C006C6F6164BB
:10318000696E6700564D4450565F317C315F564D35
:103190004450560A00564D4450525F0066616365C4
:1031A0000065737461626C697368656420636F6E37
:1031B0006E656374696F6E200A00564D4450455F1A
:1031C000003A323A007C005F564D44504500686139
:1031D00070707900616E67727900737572707269D0
:1031E00073650068617070795F656D70686173699F
:1031F0007300736164006E65757472616C00626F58
:06320000756E636500001D
:107E0000112484B714BE81FFF0D085E080938100F7
:107E100082E08093C00088E18093C10086E0809377
:107E2000C20080E18093C4008EE0C9D0259A86E02C
:107E300020E33CEF91E0309385002093840096BBD3
:107E4000B09BFECF1D9AA8958150A9F7CC24DD24C4
:107E500088248394B5E0AB2EA1E19A2EF3E0BF2EE7
:107E6000A2D0813461F49FD0082FAFD0023811F036
:107E7000013811F484E001C083E08DD089C08234E0
:107E800011F484E103C0853419F485E0A6D080C0E4
:107E9000853579F488D0E82EFF2485D0082F10E0AE
:107EA000102F00270E291F29000F111F8ED06801E7
:107EB0006FC0863521F484E090D080E0DECF843638
:107EC00009F040C070D06FD0082F6DD080E0C81688
:107ED00080E7D80618F4F601B7BEE895C0E0D1E017
:107EE00062D089930C17E1F7F0E0CF16F0E7DF06D8
:107EF00018F0F601B7BEE89568D007B600FCFDCFD4
:107F0000A601A0E0B1E02C9130E011968C91119780
:107F100090E0982F8827822B932B1296FA010C0160
:107F200087BEE89511244E5F5F4FF1E0A038BF0790
:107F300051F7F601A7BEE89507B600FCFDCF97BE46
:107F4000E89526C08437B1F42ED02DD0F82E2BD052
:107F50003CD0F601EF2C8F010F5F1F4F84911BD097
:107F6000EA94F801C1F70894C11CD11CFA94CF0C13
:107F7000D11C0EC0853739F428D08EE10CD085E9AC
:107F80000AD08FE07ACF813511F488E018D01DD067
:107F900080E101D065CF982F8091C00085FFFCCF94
:107FA0009093C60008958091C00087FFFCCF809118
:107FB000C00084FD01C0A8958091C6000895E0E648
:107FC000F0E098E1908380830895EDDF803219F02E
:107FD00088E0F5DFFFCF84E1DECF1F93182FE3DFCA
:107FE0001150E9F7F2DF1F91089580E0E8DFEE27F6
:047FF000FF270994CA
:027FFE00040479
:00000001FF
