:020000040000FA
:100000000C945E000C9486000C9486000C94860080
:100010000C9486000C9486000C9486000C94860048
:100020000C9486000C9486000C9486000C94860038
:100030000C9486000C9486000C9486000C94860028
:100040000C94F60B0C9486000C94C40B0C949E0B31
:100050000C9486000C9486000C9486000C94860008
:100060000C9486000C948600000000080002010039
:100070000003040700000000000000000000000072
:10008000250028002B0000000000240027002A0083
:10009000040404040404040402020202020203032E
:1000A0000303030301020408102040800102040836
:1000B0001020010204081020400C781511241FBEE6
:1000C000CFEFD8E0DEBFCDBF26E0A6EBB1E001C0A8
:1000D0001D92A832B207E1F711E0A0E0B1E0E2E73B
:1000E000F0E302C005900D92A63BB107D9F710E0EE
:1000F000CDE5D0E004C02197FE010E942B16CC353F
:10010000D107C9F70E94130D0C942C180C94000011
:10011000E5ECF1E0A089B18982E08C93A485B585F6
:100120001C92A685B78580E18C93108EA489B58931
:1001300086E08C93A289B3898C9180618C93A2898B
:10014000B3898C9188608C93A289B3898C918068E3
:100150008C930288F389E02D80818F7D80830895C0
:1001600090E0FC01EC55FF4F249180579F4FFC011C
:100170008491882399F090E0880F991FFC01EA5739
:10018000FF4FA591B491FC01E458FF4F85919491E4
:100190008FB7F894EC91E22BEC938FBF0895F8940D
:1001A00085B195B191602091200330912103A9017F
:1001B000440F551F240F351FF901EF5DFC4F2150EF
:1001C000310937FD98C095B94081441F4427441F29
:1001D000482B45B90000000000000000000085B970
:1001E000000000000000000000000000000095B9C1
:1001F000408146FB442740F9482B45B900000000E8
:1002000000000000000085B90000000000000000B0
:1002100000000000000095B9408145FB442740F9EB
:10022000482B45B90000000000000000000085B91F
:10023000000000000000000000000000000095B970
:10024000408142954170482B45B9000000000000F4
:100250000000000085B90000000000000000000060
:100260000000000095B9408143FB442740F9482B2A
:1002700045B90000000000000000000085B9000042
:1002800000000000000000000000000095B940815F
:1002900042FB442740F9482B45B90000000000000C
:1002A0000000000085B90000000000000000000010
:1002B0000000000095B9408146954170482B45B932
:1002C0000000000000000000000085B900000000F0
:1002D0000000000000000000000095B9000040810F
:1002E0004170482B45B900000000000000000000EC
:1002F00085B9319764CF78940895FA01508141818E
:10030000A2819C0194E0220F331F9A95E1F780FDB2
:100310000DC0620F731FFB01EE0FFF1FE60FF71FEB
:10032000E25EFC4FA483558346830895C901861B72
:10033000970BBC01615F7F4FEECF0F931F93CF935D
:10034000DF93EC018C01045F1F4F48E153E0B801DB
:1003500086E090E00E947D012D9648E153E0BE01C9
:1003600087E090E00E947D0148E153E0BE0188E013
:1003700090E00E947D0148E153E0B80189E090E0FF
:10038000DF91CF911F910F910C947D010F931F93DB
:10039000CF93DF93EC018C01075F1F4F45E153E0E2
:1003A000B80182E090E00E947D012A9645E153E089
:1003B000BE0182E090E00E947D0145E153E0B8017A
:1003C00083E090E00E947D0145E153E0BE0183E0BF
:1003D00090E00E947D0145E153E0B8018CE090E09F
:1003E0000E947D0145E153E0BE018CE090E00E9457
:1003F0007D0145E153E0B8018DE090E00E947D0170
:1004000045E153E0BE018DE090E0DF91CF911F9177
:100410000F910C947D010895909118038091190318
:1004200020911A032093690490936A0480936B04CB
:10043000209378049093790480937A042093C904DC
:100440009093CA048093CB040895909118038091EF
:10045000190320911A0320937804909379048093D0
:100460007A04089590911503809116032091170343
:100470002093640390936503809366032093610344
:10048000909362038093630320939A0390939B035A
:1004900080939C0320939D0390939E0380939F03DE
:1004A0002093A0039093A1038093A2032093A3031E
:1004B0009093A4038093A5032093C7039093C8034C
:1004C0008093C9032093C4039093C5038093C6030C
:1004D0002093C1039093C2038093C3032093BE0370
:1004E0009093BF038093C0032093FD039093FE037A
:1004F0008093FF03209300049093010480930204EF
:10050000209344059093450580934605209341052B
:10051000909342058093430520937A0590937B0541
:1005200080937C0520937D0590937E0580937F05C5
:100530002093800590938105809382052093830505
:1005400090938405809385052093A7059093A80533
:100550008093A9052093A4059093A5058093A605F3
:100560002093A1059093A2058093A30520939E0557
:1005700090939F058093A0052093DD059093DE0561
:100580008093DF052093E0059093E1058093E205D9
:10059000089590911B0380911C0320911D032093CB
:1005A000910390939203809393032093CD039093B0
:1005B000CE038093CF032093F7039093F8038093A7
:1005C000F90320934A0590934B0580934C052093A3
:1005D000740590937505809376052093B0059093EC
:1005E000B1058093B2050895909118038091190385
:1005F00020911A032093690490936A0480936B04FA
:10060000209378049093790480937A042093C9040A
:100610009093CA048093CB042093D8049093D90478
:100620008093DA0408959091150380911603209128
:10063000170320939D0390939E0380939F03209321
:10064000A0039093A1038093A2032093C1039093EE
:10065000C2038093C3032093800590938105809308
:1006600082052093A4059093A5058093A605209369
:10067000A1059093A2058093A3050895AF92BF9220
:10068000CF92DF92EF92FF920F931F93CF93DF935E
:100690006C017B018B01040F151FEB015E01AE188D
:1006A000BF08C017D10759F06991D601ED91FC91AF
:1006B0000190F081E02DC6010995892B79F7C501DC
:1006C000DF91CF911F910F91FF90EF90DF90CF902E
:1006D000BF90AF900895FC01538D448D252F30E0DD
:1006E000842F90E0821B930B541710F0CF9608953F
:1006F00001970895FC01918D828D981761F0A28D6C
:10070000AE0FBF2FB11D5D968C91928D9F5F9F7331
:10071000928F90E008958FEF9FEF0895FC01918DE7
:10072000828D981731F0828DE80FF11D858D90E054
:1007300008958FEF9FEF0895FC01918D228D892FF1
:1007400090E0805C9F4F821B91098F7399270895D9
:1007500085EC91E00E949C0321E0892B09F420E0C4
:10076000822F089580E090E0892B29F00E94A80351
:1007700081110C9400000895FC01A48DA80FB92FDD
:10078000B11DA35ABF4F2C91848D90E001968F73B9
:100790009927848FA689B7892C93A089B1898C91D8
:1007A000837080648C93938D848D981306C0028827
:1007B000F389E02D80818F7D80830895EF92FF92F1
:1007C0000F931F93CF93DF93EC0181E0888F9B8D74
:1007D0008C8D98131AC0E889F989808185FF15C02E
:1007E0009FB7F894EE89FF896083E889F989808151
:1007F0008370806480839FBF81E090E0DF91CF9120
:100800001F910F91FF90EF900895F62E0B8D10E041
:100810000F5F1F4F0F731127E02E8C8D8E110CC0B0
:100820000FB607FCFACFE889F989808185FFF5CFFB
:10083000CE010E94BC03F1CFEB8DEC0FFD2FF11D1B
:10084000E35AFF4FF0829FB7F8940B8FEA89FB8938
:1008500080818062CFCFCF93DF93EC01888D882396
:10086000B9F0AA89BB89E889F9898C9185FD03C013
:10087000808186FD0DC00FB607FCF7CF8C9185FFF8
:10088000F2CF808185FFEDCFCE010E94BC03E9CF7E
:10089000DF91CF91089590E0FC01E859FF4F24913A
:1008A000FC01EC55FF4F3491FC01E057FF4FE49100
:1008B000EE23C9F0222339F0233001F1A8F42130CE
:1008C00019F1223029F1F0E0EE0FFF1FE458FF4F3D
:1008D000A591B4918FB7F894EC91611126C0309531
:1008E0003E233C938FBF08952730A9F02830C9F0EC
:1008F000243049F7809180008F7D03C08091800073
:100900008F7780938000DFCF84B58F7784BDDBCF76
:1009100084B58F7DFBCF8091B0008F778093B0003E
:10092000D2CF8091B0008F7DF9CF3E2BDACF3FB789
:10093000F8948091BB019091BC01A091BD01B09150
:10094000BE0126B5A89B05C02F3F19F00196A11D39
:10095000B11D3FBFBA2FA92F982F8827BC01CD0109
:10096000620F711D811D911D42E0660F771F881F68
:10097000991F4A95D1F708958F929F92AF92BF9297
:10098000CF92DF92EF92FF926B017C010E9497045D
:100990004B015C01C114D104E104F104B9F00E94DF
:1009A0009704681979098A099B09683E7340810593
:1009B000910580F321E0C21AD108E108F10888EE20
:1009C000880E83E0981EA11CB11CE4CFFF90EF902D
:1009D000DF90CF90BF90AF909F908F9008952FB7EA
:1009E000F8946091B7017091B8018091B90190912C
:1009F000BA012FBF08950E94CF0064E670E080E046
:100A000090E00E94BC04E2E2F3E080E093E0DF01CA
:100A10009C011D9221503040E1F70895CF93DF9360
:100A2000EC010E94C601CE010E949D01DF91CF9191
:100A30000C94FB040E940C02909115038091160304
:100A4000209117032093A3039093A4038093A503FD
:100A50002093BE039093BF038093C003209383052C
:100A6000909384058093850520939E0590939F0520
:100A70008093A00590911B0380911C0320911D037E
:100A800020939D0390939E0380939F032093C7031D
:100A90009093C8038093C9032093FA039093FB03B8
:100AA0008093FC0320932A0490932B0480932C04BE
:100AB00020931705909318058093190520934705F7
:100AC000909348058093490520937A0590937B0580
:100AD00080937C052093A4059093A5058093A6059B
:100AE0000C94FB040E940C02909115038091160354
:100AF000209117032093A0039093A1038093A20356
:100B00002093C1039093C2038093C3032093800575
:100B100090938105809382052093A1059093A2056F
:100B20008093A3050C94FB040E940C0281E090E0EA
:100B30000E94C6010C94FB040E940C0290911503C4
:100B400080911603209117032093A3039093A4038D
:100B50008093A5032093C1039093C2038093C303A2
:100B60002093BE039093BF038093C003209380051E
:100B7000909381058093820520938305909384054B
:100B80008093850520939E0590939F058093A005F3
:100B900090911B0380911C0320911D0320939A03C5
:100BA00090939B0380939C032093A7059093A805A3
:100BB0008093A9050C94FB040E940C0290911503EC
:100BC00080911603209117032093A3039093A4030D
:100BD0008093A5032093C1039093C2038093C30322
:100BE0002093BE039093BF038093C003209380059E
:100BF00090938105809382052093830590938405CB
:100C00008093850520939E0590939F058093A00572
:100C100090911B0380911C0320911D0320939A0344
:100C200090939B0380939C032093CA039093CB03E0
:100C30008093CC032093F7039093F8038093F903F8
:100C400020934A0590934B0580934C05209377059C
:100C500090937805809379052093A7059093A80534
:100C60008093A9050C94FB040E940C02909115033B
:100C700080911603209117032093A3039093A4035C
:100C80008093A5032093C1039093C2038093C30371
:100C90002093BE039093BF038093C00320938005ED
:100CA000909381058093820520938305909384051A
:100CB0008093850520939E0590939F058093A005C2
:100CC00090911B0380911C0320911D0320939A0394
:100CD00090939B0380939C032093CA039093CB0330
:100CE0008093CC032093F7039093F8038093F90348
:100CF00020932D0490932E0480932F0420931405A9
:100D0000909315058093160520934A0590934B0503
:100D100080934C052093770590937805809379050F
:100D20002093A7059093A8058093A9050C94FB0434
:100D30009091150380911603209117032093A0032F
:100D40009093A1038093A2032093C1039093C203C5
:100D50008093C3032093800590938105809382053F
:100D60002093A1059093A2058093A30590E080E0D5
:100D70000E949D010C94FB040E94980690E080E084
:100D80000E949D010E94FB040C949806909115030B
:100D9000809116032091170320939D0390939E0347
:100DA00080939F032093C4039093C5038093C6034D
:100DB00020937D0590937E0580937F052093A40565
:100DC0009093A5058093A60590E080E00E949D0188
:100DD0000C94FB0490911503809116032091170346
:100DE00020936403909365038093660320939A0392
:100DF00090939B0380939C032093C7039093C80315
:100E00008093C9032093FD039093FE038093FF0317
:100E100020934405909345058093460520937A05D9
:100E200090937B0580937C052093A7059093A8055C
:100E30008093A9052093DD059093DE058093DF055F
:100E400090E080E00E949D010C94FB0491E090935F
:100E50005E0385E080935F03109260039093A30389
:100E60008093A4031092A50390939E0580939F0501
:100E70001092A0059093E3058093E4051092E50598
:100E80000C94EA062F923F924F925F926F927F925C
:100E90008F929F92AF92BF92CF92DF92EF92FF928A
:100EA0000F931F93CF93DF938BE1E82E83E0F82E0F
:100EB000F70110820CE113E0F8011082CDE1D3E0DC
:100EC00085E0888395E1692E93E0792EF301908186
:100ED00026E1422E23E0522EF201808137E1232EBB
:100EE00033E0332EF1012081209364039093650356
:100EF000809366032093610390936203809363035E
:100F000020939D0390939E0380939F032093A003BF
:100F10009093A1038093A203E3EAF3E02083E4EA41
:100F2000F3E09083E5EAF3E080832093C403909399
:100F3000C5038093C6032093C1039093C20380939B
:100F4000C303EEEBF3E02083EFEBF3E09083E0EC00
:100F5000F3E080832093FD039093FE038093FF03CF
:100F6000209300049093010480930204209344058D
:100F70009093450580934605209341059093420543
:100F80008093430520937D0590937E0580937F0594
:100F9000209380059093810580938205E3E8F5E036
:100FA0002083E4E8F5E09083E5E8F5E08083209392
:100FB000A4059093A5058093A6052093A105909381
:100FC000A2058093A3054EE9842E45E0942EF401FA
:100FD00020835FE9A52E55E0B52EF501908360EAE8
:100FE000C62E65E0D62EF60180832093DD05909312
:100FF000DE058093DF052093E0059093E105809363
:10100000E2050E942502F7019081F8018081288184
:1010100020937303909374038093750320938E033E
:1010200090938F03809390032093D3039093D403E2
:101030008093D50320936E0590936F058093700580
:101040002093B3059093B4058093B5052093CE0506
:101050009093CF058093D0050E94FB04F30190810B
:10106000F2018081F1012081E3EAF3E02083E4EAE8
:10107000F3E09083E5EAF3E08083EEEBF3E0208396
:10108000EFEBF3E09083E0ECF3E08083E3E8F5E05E
:101090002083E4E8F5E09083E5E8F5E08083F4015F
:1010A0002083F5019083F60180830E942502F701D9
:1010B0009081F801808128812093700390937103BF
:1010C00080937203209391039093920380939303F0
:1010D0002093D0039093D1038093D2032093710582
:1010E00090937205809373052093B0059093B1059A
:1010F0008093B2052093D1059093D2058093D305B8
:101100000E94FB040E942502F7019081F801808172
:10111000288120936D0390936E0380936F03209337
:10112000940390939503809396032093CD0390931B
:10113000CE038093CF03209374059093750580931D
:1011400076052093AD059093AE058093AF0520936F
:10115000D4059093D5058093D6050E94FB04F30136
:101160009081F2018081F1012081E3EAF3E02083A4
:10117000E4EAF3E09083E5EAF3E08083EEEBF3E06A
:101180002083EFEBF3E09083E0ECF3E08083E3E88F
:10119000F5E02083E4E8F5E09083E5E8F5E080837E
:1011A000F4012083F5019083F60180839091180368
:1011B0008091190320911A0320937B0490937C045F
:1011C00080937D04209378049093790480937A042B
:1011D0002093C6049093C7048093C8042093C90445
:1011E0009093CA048093CB04F7019081F801808129
:1011F000288120936A0390936B0380936C03209360
:10120000970390939803809399032093AA05909352
:10121000AB058093AC052093D7059093D8058093B8
:10122000D905DF91CF911F910F91FF90EF90DF9043
:10123000CF90BF90AF909F908F907F906F905F9076
:101240004F903F902F900C94FB040E94F4020E9458
:10125000C9029091150380911603209117032093E2
:10126000A0039093A1038093A2032093C1039093C2
:10127000C2038093C30320938005909381058093DC
:1012800082052093A1059093A2058093A3050C9459
:10129000FB040E9425090E94F4020E94C9020E94D8
:1012A000FB040C94250990E080E00E94C6010E9496
:1012B000F4020C94FB0490911B0380911C03209179
:1012C0001D032093F7039093F8038093F903209371
:1012D0004A0590934B0580934C050C9453090E944A
:1012E000F4020E94130390911B0380911C03209130
:1012F0001D032093CD039093CE038093CF032093BF
:10130000F7039093F8038093F90320934A05909391
:101310004B0580934C05209374059093750580933D
:1013200076050C94FB040E94F4020E9413030E94B1
:10133000C9020C94FB04FC0180819181009711F09B
:101340000C94CD160895FC0101900020E9F7319727
:10135000AF01481B590BBC0185EC91E00C943E0396
:10136000CF93DF930E94A309EC018BE191E00E94EF
:10137000A3098C0F9D1FDF91CF9108958F929F92AB
:10138000AF92BF920F931F93CF93DF93CDB7DEB78A
:10139000A1970FB6F894DEBF0FBECDBF19A24230A1
:1013A00008F44AE08E010F5D1F4F842E912CB12C62
:1013B000A12CA50194010E94D215E62FB901CA0102
:1013C000EA30F4F4E05DD801EE938D01232B242B59
:1013D000252B79F790E080E0109719F0CD010E945D
:1013E000A309A1960FB6F894DEBF0FBECDBFDF9163
:1013F000CF911F910F91BF90AF909F908F900895C4
:10140000E95CE1CF2091B2023091B3028091AC024D
:101410009091AD0228173907F1F48091AE029091B6
:10142000AF026091A8027091A9020097D9F06115EE
:101430007105A9F4232BC9F0FC01808190E008C05C
:10144000232B99F0FB01808190E091958195910982
:1014500021E0892B09F020E081E0822708950E9495
:101460001C18F6CF6115710559F721E0F5CF2091D1
:10147000AC023091AD02232B39F421E0FC018081D4
:10148000882361F020E00AC0BC018091A8029091FD
:10149000A9020E941C1821E0892BA1F7822F089530
:1014A000EF92FF920F931F93CF93DF9300D000D062
:1014B000CDB7DEB785EC91E00E947A0385EC91E030
:1014C0000E947A038E010F5F1F4F78018A3341F02B
:1014D000F80181938F0185EC91E00E947A03F6CFA9
:1014E000C7010E948015182F85EC91E00E947A03B5
:1014F0008053990B8230910520F4682F812F0E9430
:101500004B0485EC91E00E947A038A3011F08D3013
:10151000C1F785EC91E00E948E038A3021F485ECBE
:1015200091E00E947A030F900F900F900F90DF913F
:10153000CF911F910F91FF90EF900895EF92FF923E
:101540000F931F93CF93DF93EC017B018A01888176
:101550009981009729F02A813B812417350788F467
:10156000B8016F5F7F4F0E945617009791F09983E3
:1015700088831B830A832C813D81232B11F4FC017A
:1015800010821D830C83B701888199810E942518E0
:101590000CC088819981009711F00E94CD161982A4
:1015A00018821D821C821B821A82CE01DF91CF918C
:1015B0001F910F91FF90EF900895FB010190002083
:1015C000E9F73197AF01461B570B0C949E0AFC01BB
:1015D00011821082138212821582148261157105A4
:1015E00051F0FB0101900020E9F73197AF01461B54
:1015F000570B0C949E0A0895FF920F931F93CF935D
:10160000DF9300D000D000D0CDB7DEB701E08FE18E
:10161000F82E85EC91E00E949C031091140318169B
:1016200019064CF5111127C085EC91E00E947A0350
:101630009091C4019923D1F09091C301E92FF0E07A
:10164000E855FD4F8E3351F084879F5F903218F03C
:10165000F092C301DECF9093C301DBCF14861092CA
:10166000C4011092C30100931403D3CF8C3389F6C5
:101670000093C401CECF1123D9F164EB72E084ED65
:1016800092E00E9425186EE171E084ED92E00E94E4
:101690009E15BC0184EF92E00E94251864EF72E071
:1016A000CE0101960E94E70A8091A8029091A902BA
:1016B000009769F169817A816115710531F1409175
:1016C000AA025091AB022D813E8142175307E8F0E8
:1016D0000E9425188D819E819093AD028093AC026B
:1016E0001E821D82CE0101960E949B091092140356
:1016F000812F26960FB6F894DEBF0FBECDBFDF91C7
:10170000CF911F910F91FF9008950E94CD1689816E
:101710009A819093A9028093A8028B819C819093D7
:10172000AB028093AA028D819E819093AD0280933B
:10173000AC021A8219821C821B82D2CF1F920F9296
:101740000FB60F9211242F933F934F935F936F9394
:101750007F938F939F93AF93BF93EF93FF9385EC0A
:1017600091E00E94BC03FF91EF91BF91AF919F91D7
:101770008F917F916F915F914F913F912F910F903A
:101780000FBE0F901F9018951F920F920FB60F92D9
:1017900011242F938F939F93EF93FF93E091D501A3
:1017A000F091D6018081E091DB01F091DC0182FDB6
:1017B0001BC090818091DE018F5F8F732091DF01CC
:1017C000821741F0E091DE01F0E0EB53FE4F958F80
:1017D0008093DE01FF91EF919F918F912F910F9058
:1017E0000FBE0F901F9018958081F4CF1F920F921B
:1017F0000FB60F9211242F933F938F939F93AF9324
:10180000BF938091B7019091B801A091B901B091B7
:10181000BA013091B60123E0230F2D3758F5019618
:10182000A11DB11D2093B6018093B7019093B8011B
:10183000A093B901B093BA018091BB019091BC0112
:10184000A091BD01B091BE010196A11DB11D809373
:10185000BB019093BC01A093BD01B093BE01BF91A9
:10186000AF919F918F913F912F910F900FBE0F904D
:101870001F90189526E8230F0296A11DB11DD2CF07
:101880001092C8011092C70188EE93E0A0E0B0E08A
:101890008093C9019093CA01A093CB01B093CC016E
:1018A0008DE091E09093C6018093C50185EC90E0B6
:1018B0009093D2018093D10184EC90E09093D40175
:1018C0008093D30180EC90E09093D6018093D50172
:1018D00081EC90E09093D8018093D70182EC90E066
:1018E0009093DA018093D90186EC90E09093DC012B
:1018F0008093DB011092DE011092DF011092E00173
:101900001092E101109268021092690210926A022C
:1019100010926B0210926C0210926D0210926E0285
:1019200010926F0210927002109271021092720265
:101930001092730210927402109275021092760245
:10194000109277026DE171E088EA92E00E94E70A66
:101950006DE171E08EEA92E00E94E70AE4EFF2E0C6
:1019600080E2DF011D928A95E9F71092150310922B
:10197000160384E680931703809106019091070176
:10198000A09108018093180390931903A0931A0360
:101990008AE080931B0310921C0310921D0380E0C9
:1019A00091E0909321038093200388E090E090934E
:1019B0001F0380931E03E2E2F3E080E093E0DF0187
:1019C0009C011D9221503040E1F70E94CF001092FF
:1019D000140360E271E088EA92E00E94DD0A6091FF
:1019E000A8027091A9026115710541F04091AC0205
:1019F0005091AD028EEA92E00C949E0A8091AE0264
:101A00009091AF02009711F00E94CD161092AF0294
:101A10001092AE021092B3021092B2021092B10272
:101A20001092B0020895789484B5826084BD84B524
:101A3000816084BD85B5826085BD85B5816085BDC9
:101A400080916E00816080936E0010928100809181
:101A50008100826080938100809181008160809309
:101A60008100809180008160809380008091B1002E
:101A700084608093B1008091B00081608093B00059
:101A800080917A00846080937A0080917A008260ED
:101A900080937A0080917A00816080937A008091AF
:101AA0007A00806880937A001092C1001092A4029C
:101AB0001092A5021092A6021092A7021092640240
:101AC0001092650210926602109267020E94EF0463
:101AD0006B017C014B015C0128EB820E2BE0921E16
:101AE000A11CB11C0E94EF046C157D058E059F059D
:101AF00028F086169706A806B906A0F768EE73E0E8
:101B000080E090E00E94BC040E9488000E94EF04E4
:101B100060936402709365028093660290936702FB
:101B200088E291E00E94A3090E94EF046B017C010E
:101B30004B015C013AE0830E911CA11CB11C0E9478
:101B4000EF046C157D058E059F0528F08616970617
:101B5000A806B906A0F781E0809378020E94EF04FE
:101B600060936402709365028093660290936702AB
:101B700089E391E00E94A30988E00E94B0008DE013
:101B80000E94B0000E94880080E491E00E94A309B6
:101B900061E08DE00E944B0460E08DE00E944B0408
:101BA00081E591E00E94A30930E0C32E30E0D32EFE
:101BB000D5E04CE3F42ECEE18BE4282E94E6392ECA
:101BC00023E0E22E0E94EF04672B682B692B09F4B7
:101BD000EFC00E94EF040091BF011091C00120915D
:101BE000C1013091C201601771078207930708F4A1
:101BF000CAC30091BF011091C0012091C101309171
:101C0000C2014B015C01801A910AA20AB30A950134
:101C10008401083E13402105310508F4D1C06093CA
:101C2000BF017093C0018093C1019093C20184EF02
:101C300091E0A0E0B0E08093700290937102A093D5
:101C40007202B09373021092740210927502109295
:101C50007602109277028091680290916902A091B9
:101C60006A02B0916B0280936C0290936D02A09314
:101C70006E02B0936F020E94EF046093680270934B
:101C8000690280936A0290936B0285EC91E00E9456
:101C90008E03843611F40E94500A0E94EF04609370
:101CA00064027093650280936602909367020E94BB
:101CB000EF042B013C018AE691E00E94A3094AE06F
:101CC00061E070E080E090E00E94BE0981E791E071
:101CD0000E94A3094AE0C301B2010E94BE0983E742
:101CE00091E00E94A3098091680290916902A091FD
:101CF0006A02B0916B0253014201881A990AAA0A3A
:101D0000BB0AC501B4014AE00E94BE0983E791E025
:101D10000E94A309609168027091690280916A0231
:101D200090916B0200916C0210916D0220916E02F5
:101D300030916F02601B710B820B930B4AE00E9483
:101D4000BE0985E791E00E94A3090E94EF044AE0E2
:101D50000E94BE0987E791E00E94B0090E94EF044B
:101D60004B015C012B013C0125E0420E511C611C22
:101D7000711C0E94EF04681579058A059B0528F0FF
:101D80004616570668067906A0F785EC91E00E9492
:101D90008E03843611F40E94500A0E94EF0460936F
:101DA00068027093690280936A0290936B0208C084
:101DB0000E94EF04623071058105910508F009CF9A
:101DC00080E291E00E94370A882309F4E5C280E2AC
:101DD00091E00E94B00960E271E08EEA92E00E9418
:101DE000DD0A909118038091190320911A03209322
:101DF0005704909358048093590420935A04909365
:101E00005B0480935C042093840490938504809306
:101E100086040E94FB04909118038091190320917D
:101E20001A0320935A0490935B0480935C042093DC
:101E3000840490938504809386042093BD0490933A
:101E4000BE048093BF040E94FB049091180380910C
:101E5000190320911A03209384049093850480939E
:101E600086042093BD049093BE048093BF04209306
:101E7000E7049093E8048093E9040E94FB049091A6
:101E800018038091190320911A032093BD049093A5
:101E9000BE048093BF042093EA049093EB048093E4
:101EA000EC042093E7049093E8048093E9040E94F3
:101EB000FB04909118038091190320911A03209339
:101EC000B4049093B5048093B6042093EA049093ED
:101ED000EB048093EC042093E7049093E804809350
:101EE000E9040E94FB04909118038091190320914A
:101EF0001A0320938D0490938E0480938F04209373
:101F0000B4049093B5048093B6042093EA049093AC
:101F1000EB048093EC040E94FB04909118038091E1
:101F2000190320911A032093570490935804809327
:101F3000590420938D0490938E0480938F042093F2
:101F4000B4049093B5048093B6040E94FB0490916E
:101F500018038091190320911A032093570490933A
:101F600058048093590420935A0490935B048093FF
:101F70005C0420938D0490938E0480938F040E94C0
:101F8000FB040E94FC0A882309F4F1C19091180314
:101F90008091190320911A0320935A0490935B04B3
:101FA00080935C0420935D0490935E0480935F04AF
:101FB0002093600490936104809362040E94FB0468
:101FC000909118038091190320911A0320936004C3
:101FD000909361048093620420936304909364045B
:101FE000809365042093660490936704809368044B
:101FF0000E94FB04909118038091190320911A0309
:102000002093630490936404809365042093660492
:1020100090936704809368042093780490937904E4
:1020200080937A040E94FB04909118038091190315
:1020300020911A03209366049093670480936804A8
:10204000209378049093790480937A042093C904B0
:102050009093CA048093CB040E94FB041092150352
:1020600010921603E09217039091180380911903C0
:1020700020911A03209378049093790480937A0432
:102080002093C9049093CA048093CB042093DB046B
:102090009093DC048093DD04E0927E0410927F0430
:1020A00010928004E092C3041092C4041092C504FC
:1020B0000E94FB04909118038091190320911A0348
:1020C0002093C9049093CA048093CB042093DE0428
:1020D0009093DF048093E0042093DB049093DC046E
:1020E0008093DD04909115038091160320911703CE
:1020F0002093600490936104809362042093E10430
:102100009093E2048093E3040E94FB0490911803EF
:102110008091190320911A032093C0049093C10465
:102120008093C2042093DE049093DF048093E00444
:102130002093DB049093DC048093DD0490911503DD
:102140008091160320911703209321049093220479
:1021500080932304209320059093210580932205EA
:102160000E94FB04909118038091190320911A0397
:102170002093810490938204809383042093C0046D
:102180009093C1048093C2042093DE049093DF04F3
:102190008093E0049091150380911603209117031A
:1021A000209300049093010480930204209341053E
:1021B00090934205809343050E94FB0410921503FF
:1021C00010921603D093170390911803809119036E
:1021D00020911A0320936304909364048093650410
:1021E0002093810490938204809383042093C004FD
:1021F0009093C1048093C204D093C1031092C20390
:102200001092C303D093800510928105109282052D
:102210000E94FB0410921503109216038AE080932B
:102220001703209118039091190330911A033093EA
:1022300063042093640490936504309366042093B0
:1022400067049093680430938104209382049093F0
:1022500083048093A0031092A1031092A2038093A1
:10226000C1031092C2031092C303809380051092A1
:102270008105109282058093A1051092A20510920B
:10228000A3050E94FB041092150310921603C0933D
:102290001703909118038091190320911A0320933A
:1022A0006304909364048093650420936604909380
:1022B0006704809368042093780490937904809352
:1022C0007A04C093A0031092A1031092A203C093BA
:1022D000C4031092C5031092C603C093C1031092A9
:1022E000C2031092C303C0937D0510927E05109225
:1022F0007F05C09380051092810510928205C093DE
:10230000A1051092A2051092A3050E94FB04109251
:10231000150310921603F092170390911803809101
:10232000190320911A032093660490936704809305
:102330006804209378049093790480937A0420931E
:10234000C9049093CA048093CB0490E080E00E947B
:10235000C6010E94FB0410921503109216033092DE
:10236000170390E080E00E940E050E94FC0AC11451
:10237000D10409F427CC0E94A803882309F41BCCBC
:102380000E94000018CC6093BF017093C00180933D
:10239000C1019093C2012DCC8EE791E00E94370AD3
:1023A0008823D1F08EE791E00E94B0096EE771E0DA
:1023B0008EEA92E00E94DD0A04E110E090E080E005
:1023C0000E940E050E94FC0A8111D1CF0150110913
:1023D000A9F70E94BC06CBCF84E891E00E94370A9F
:1023E000882309F4A2C084E891E00E94B0090E9409
:1023F000020A882309F453C08AE080931B031092D9
:102400001C0310921D030E94980690E080E00E9439
:102410009D0190911503809116032091170320933D
:10242000A0039093A1038093A2032093C1039093F0
:10243000C2038093C303209380059093810580930A
:1024400082052093A1059093A2058093A3050E9485
:10245000F4020E94FB04C09315031092160320920D
:1024600017030E945309F09215031092160332E3EA
:10247000309317030E945B094AE5409315031092BD
:10248000160359E1509317030E946F0988E7809360
:10249000150310921603109217030E94930964E823
:1024A00071E08EEA92E00E94DD0A8AE080931B03CD
:1024B00010921C0310921D0304E110E00E94930986
:1024C0000E94FC0A882359F18AE080931B03109232
:1024D0001C0310921D030E9449099AE5909315036D
:1024E00010921603A9E1A09317030E946F09F092BE
:1024F000150310921603B2E3B09317030E945B0911
:10250000C093150310921603209217030E945309DB
:1025100010921503109216033092170328CF015022
:10252000110961F60E94490922CF8AE891E00E94D0
:10253000370A882309F464C18AE891E00E94B0094F
:102540000E94020A882309F412C110921B03109200
:102550001C03D0931D0390E080E00E94C60190917F
:1025600018038091190320911A0320937B04909300
:102570007C0480937D042093780490937904809365
:102580007A042093C6049093C7048093C8042093D0
:10259000C9049093CA048093CB040E94FB049091D9
:1025A00015038091160320911703209364039093E1
:1025B0006503809366032093610390936203809385
:1025C000630320939A0390939B0380939C0320932F
:1025D0009D0390939E0380939F032093A003909369
:1025E000A1038093A2032093C7039093C803809311
:1025F000C9032093C4039093C5038093C60320931B
:10260000C1039093C2038093C30320937A059093F0
:102610007B0580937C0520937D0590937E058093B8
:102620007F052093800590938105809382052093F8
:10263000A7059093A8058093A9052093A4059093DE
:10264000A5058093A6052093A1059093A2058093EC
:10265000A3052093DD059093DE058093DF0520938D
:10266000E0059093E1058093E2050E942502909198
:102670001B0380911C0320911D03209397039093CB
:102680009803809399032093CA039093CB0380937C
:10269000CC03209377059093780580937905209358
:1026A000AA059093AB058093AC050E94FB040E94A1
:1026B00032020E94250290911B0380911C032091FD
:1026C0001D0320936D0390936E0380936F032093FB
:1026D000940390939503809396032093CD03909356
:1026E000CE038093CF032093740590937505809358
:1026F00076052093AD059093AE058093AF052093AA
:10270000D4059093D5058093D6050E94FB040E94C2
:1027100032020E94250290911B0380911C0320919C
:102720001D03209370039093710380937203209391
:10273000910390939203809393032093D0039093FB
:10274000D1038093D20320937105909372058093F7
:1027500073052093B0059093B1058093B205209343
:10276000D1059093D2058093D3050E94FB046AE8BB
:1027700071E08EEA92E00E94DD0A04E110E00E941E
:1027800032020E94250290911B0380911C0320912C
:102790001D03209373039093740380937503209318
:1027A0008E0390938F03809390032093D303909391
:1027B000D4038093D50320936E0590936F05809387
:1027C00070052093B3059093B4058093B5052093CD
:1027D000CE059093CF058093D0050E94FB040E9404
:1027E000FC0A882319F00E944207C1CD015011094B
:1027F00031F66EE771E088EA92E00E94DD0AF3CFDD
:1028000083E991E00E94370A882369F183E991E026
:102810000E94B0090E94020A882341F00E94BC066F
:102820000E94C6060E94EA060E94260763E971E03C
:102830008EEA92E00E94DD0A04E110E00E94260781
:102840000E94FC0A882329F00E94EA060E94C6061C
:10285000C0CD0150110991F76EE771E088EA92E06E
:102860000E94DD0AF1CF82EA91E00E94370A8823B4
:1028700009F481C082EA91E00E94B0090E94020A34
:102880008823A1F010921B0310921C03D0931D0308
:102890000E9472050E940C020E94FB040E94940593
:1028A0000E949C050E94DC050E94340662EA71E0E9
:1028B0008EEA92E00E94DD0A04E110E00E943406F4
:1028C0000E94FC0A8823A9F010921B0310921C039B
:1028D000D0931D030E9434060E94DC050E949C05D3
:1028E0000E9494050E940C020E94FB040E94720543
:1028F0003ECD0150110911F70E941A050E940C02E9
:1029000090911B0380911C0320911D0320939D0334
:1029100090939E0380939F032093C7039093C803D3
:102920008093C9032093FA039093FB038093FC03E5
:1029300020932A0490932B0480932C042093170552
:1029400090931805809319052093470590934805A7
:102950008093490520937A0590937B0580937C05AD
:102960002093A4059093A5058093A6050E94FB04DF
:102970000E941A05FCCC86EA91E00E94370A88235F
:1029800009F464C086EA91E00E94B00966EA71E049
:102990008EEA92E00E94DD0A04E110E090E080E01F
:1029A0000E94C6010E940C020E94FB040E94FC0AC5
:1029B0008111DDCC0150110989F7909115038091A7
:1029C0001603209117032093A0039093A1038093F3
:1029D000A2032093C1039093C2038093C303209367
:1029E000800590938105809382052093A1059093A3
:1029F000A2058093A3050E940C020E94FB040E9482
:102A00000C020E94FB049091150380911603209103
:102A100017032093A0039093A1038093A203209314
:102A2000C1039093C2038093C303209380059093C6
:102A30008105809382052093A1059093A205809340
:102A4000A3050E940C020E94FB0491CC8EEA91E047
:102A50000E94370A882309F444C08EEA91E00E945C
:102A6000B0096EEA71E08EEA92E00E94DD0A10E0A1
:102A700000E0C8010E940E0501501109073F2FEF29
:102A80001207B9F787EF9FEF0E94C60186EF9FEF0D
:102A90000E949D010E94FB0407EF1FEFC8010E94E6
:102AA0000E0501151105C1F00F5F1F4F0230110512
:102AB000A9F783E090E00E94C60182E090E00E94C6
:102AC0009D010E94FB0482E090E00E940E0581E0DF
:102AD00090E00E940E054BCC0E94FC0A882321F353
:102AE00046CC6EE771E088EA92E00E94DD0A3FCCB6
:102AF0008EEA92E00E949B0988EA92E00C949B097E
:102B0000FC0188279927E89421912032E9F32930A4
:102B100010F02E30C8F32B3241F02D3239F4689486
:102B200004C00E94CA15820F911D219120532A30A2
:102B3000C0F31EF4909581959F4F089542E256E0B0
:102B40000E94A3150895FA01A191B081009719F48C
:102B50001097E1F0CD01DC01CD010D90002011F4C2
:102B6000C00113C0FB012191222319F02015D9F7D0
:102B7000F3CFFB012191201519F41E92119606C086
:102B80002223C1F70D900020A1F7D001FA01A193F3
:102B9000B08308957AE0979F902D879F802D910DA7
:102BA00011240895A1E21A2EAA1BBB1BFD010DC022
:102BB000AA1FBB1FEE1FFF1FA217B307E407F507ED
:102BC00020F0A21BB30BE40BF50B661F771F881FC9
:102BD000991F1A9469F760957095809590959B015F
:102BE000AC01BD01CF0108952F923F924F925F92A9
:102BF0006F927F928F929F92AF92BF92CF92DF920D
:102C0000EF92FF920F931F93CF93DF93CDB7DEB771
:102C1000CA1BDB0B0FB6F894DEBF0FBECDBF099405
:102C20002A88398848885F846E847D848C849B845C
:102C3000AA84B984C884DF80EE80FD800C811B816A
:102C4000AA81B981CE0FD11D0FB6F894DEBF0FBE99
:102C5000CDBFED010895EE0FFF1F0590F491E02D1B
:102C600009940F931F93CF93DF938230910510F453
:102C700082E090E0E0912606F091270630E020E027
:102C8000B0E0A0E0309799F42115310509F44AC06D
:102C9000281B390B24303105D8F58A819B816115B9
:102CA000710589F1FB0193838283FE0111C040818C
:102CB00051810281138148175907E0F048175907DD
:102CC00099F4109761F012960C93129713961C9337
:102CD0003296CF01DF91CF911F910F91089500930C
:102CE000260610932706F4CF2115310551F042171F
:102CF000530738F0A901DB019A01BD01DF01F8019A
:102D0000C1CFEF01F9CF9093270680932606CDCF50
:102D1000FE01E20FF31F8193919322503109398311
:102D20002883D7CF2091240630912506232B41F408
:102D3000209102013091030130932506209324064F
:102D400020910001309101012115310541F42DB789
:102D50003EB74091040150910501241B350BE091D1
:102D60002406F0912506E217F307A0F42E1B3F0B73
:102D70002817390778F0AC014E5F5F4F24173507ED
:102D800048F04E0F5F1F5093250640932406819311
:102D900091939FCFF0E0E0E09CCFCF93DF9300973B
:102DA000E9F0FC01329713821282A0912606B091BD
:102DB0002706ED0130E020E01097A1F42081318159
:102DC000820F931F2091240630912506281739077A
:102DD00009F061C0F0932506E0932406DF91CF91BE
:102DE0000895EA01CE17DF07E8F54A815B819E016D
:102DF00041155105B1F7E901FB83EA8349915991E6
:102E0000C40FD51FEC17FD0761F4808191810296F4
:102E1000840F951FE90199838883828193819B8325
:102E20008A83F0E0E0E012968D919C9113970097D1
:102E3000B9F52D913C911197CD010296820F931F08
:102E400020912406309125062817390739F6309746
:102E500051F51092270610922606B0932506A093EE
:102E60002406BCCFD383C28340815181840F951F38
:102E7000C817D90761F44E5F5F4F88819981480F69
:102E8000591F518340838A819B81938382832115BB
:102E9000310509F0B0CFF0932706E09326069ECFC8
:102EA000FD01DC01C0CF13821282D7CFB0E0A0E0D9
:102EB000ECE5F7E10C94F6158C01009751F4CB0189
:102EC0000E9431168C01C801CDB7DEB7E0E10C9449
:102ED0001216FC01E60FF71F9C0122503109E21780
:102EE000F30708F49DC0D901CD91DC911197C61765
:102EF000D70798F0C530D10530F3CE010497861777
:102F0000970708F3C61BD70B2297C193D1936D93F4
:102F10007C93CF010E94CD16D6CF5B01AC1ABD0ABF
:102F20004C018C0E9D1EA0912606B0912706512CB7
:102F3000412CF12CE12C109731F5809124069091D1
:102F400025068815990509F05CC04616570608F055
:102F500058C08091000190910101009741F48DB714
:102F60009EB74091040150910501841B950BE81711
:102F7000F90708F055C0F0932506E0932406F901FF
:102F800071836083A0CF8D919C91119712966C9064
:102F9000129713967C901397A815B90559F56C01F3
:102FA00042E0C40ED11CCA14DB0420F1AC014A1962
:102FB0005B09DA011296159780F062827382518361
:102FC0004083D9016D937C93E114F10471F0D70132
:102FD0001396FC93EE93129776CF22968C0F9D1F3B
:102FE000F90191838083F301EFCFF0932706E093FB
:102FF000260669CF4816590608F42C017D01D30135
:103000009ACFCB010E9431167C01009749F0AE01A6
:10301000B8010E941318C8010E94CD16870153CF32
:1030200010E000E050CFFB01DC0102C001900D92E6
:1030300041505040D8F70895FB01DC018D9101907B
:1030400080190110D9F3990B0895FB01DC0101905F
:103050000D920020E1F7089510E0CDE5D0E004C026
:10306000FE010E942B162196CE35D107C9F7F894A0
:10307000FFCF0000280680000A0A0A00000000DED8
:10308000033E036B032B049C037A038E030D0A009B
:103090002C006C6F6164696E6700564D4450565F3A
:1030A000317C315F564D4450560A00564D445052C3
:1030B0005F00636F6E6E656374656420706F727419
:1030C000200A0065737461626C69736865642063CB
:1030D0006F6E6E656374696F6E200A00564D4450C2
:1030E000455F003A323A007C005F564D445045003F
:1030F000686170707900616E6772790073757270C3
:10310000726973650068617070795F656D70686180
:1031100073697300736164006E65757472616C002D
:08312000626F756E636500002B
:107E0000112484B714BE81FFF0D085E080938100F7
:107E100082E08093C00088E18093C10086E0809377
:107E2000C20080E18093C4008EE0C9D0259A86E02C
:107E300020E33CEF91E0309385002093840096BBD3
:107E4000B09BFECF1D9AA8958150A9F7CC24DD24C4
:107E500088248394B5E0AB2EA1E19A2EF3E0BF2EE7
:107E6000A2D0813461F49FD0082FAFD0023811F036
:107E7000013811F484E001C083E08DD089C08234E0
:107E800011F484E103C0853419F485E0A6D080C0E4
:107E9000853579F488D0E82EFF2485D0082F10E0AE
:107EA000102F00270E291F29000F111F8ED06801E7
:107EB0006FC0863521F484E090D080E0DECF843638
:107EC00009F040C070D06FD0082F6DD080E0C81688
:107ED00080E7D80618F4F601B7BEE895C0E0D1E017
:107EE00062D089930C17E1F7F0E0CF16F0E7DF06D8
:107EF00018F0F601B7BEE89568D007B600FCFDCFD4
:107F0000A601A0E0B1E02C9130E011968C91119780
:107F100090E0982F8827822B932B1296FA010C0160
:107F200087BEE89511244E5F5F4FF1E0A038BF0790
:107F300051F7F601A7BEE89507B600FCFDCF97BE46
:107F4000E89526C08437B1F42ED02DD0F82E2BD052
:107F50003CD0F601EF2C8F010F5F1F4F84911BD097
:107F6000EA94F801C1F70894C11CD11CFA94CF0C13
:107F7000D11C0EC0853739F428D08EE10CD085E9AC
:107F80000AD08FE07ACF813511F488E018D01DD067
:107F900080E101D065CF982F8091C00085FFFCCF94
:107FA0009093C60008958091C00087FFFCCF809118
:107FB000C00084FD01C0A8958091C6000895E0E648
:107FC000F0E098E1908380830895EDDF803219F02E
:107FD00088E0F5DFFFCF84E1DECF1F93182FE3DFCA
:107FE0001150E9F7F2DF1F91089580E0E8DFEE27F6
:047FF000FF270994CA
:027FFE00040479
:00000001FF
