:100000000C945E000C9486000C9486000C94860080
:100010000C9486000C9486000C9486000C94860048
:100020000C9486000C9486000C9486000C94860038
:100030000C9486000C9486000C9486000C94860028
:100040000C940D0B0C9486000C94DB0A0C94B50AEE
:100050000C9486000C9486000C9486000C94860008
:100060000C9486000C9486000000000024002700F9
:100070002A0000000000250028002B0004040404CE
:100080000404040402020202020203030303030342
:10009000010204081020408001020408102001021F
:1000A00004081020000000080002010000030407FB
:1000B0000000000000000000570B611311241FBE58
:1000C000CFEFD8E0DEBFCDBF25E0A4E7B1E001C0AF
:1000D0001D92AC39B207E1F711E0A0E0B1E0E4EB2A
:1000E000FBE202C005900D92A437B107D9F710E0EA
:1000F000CDE5D0E004C02197FE010E94CC13CC35A1
:10010000D107C9F70E940A0C0C94CD150C9400007D
:10011000F89485B195B19160209194023091950247
:10012000A901440F551F240F351FF901EB56FD4F50
:100130002150310937FD98C095B94081441F4427AB
:10014000441F482B45B900000000000000000000DB
:1001500085B9000000000000000000000000000061
:1001600095B9408146FB442740F9482B45B900002A
:10017000000000000000000085B900000000000041
:10018000000000000000000095B9408145FB4427B5
:1001900040F9482B45B900000000000000000000B5
:1001A00085B9000000000000000000000000000011
:1001B00095B9408142954170482B45B90000000037
:1001C00000000000000085B90000000000000000F1
:1001D00000000000000095B9408143FB442740F92E
:1001E000482B45B90000000000000000000085B960
:1001F000000000000000000000000000000095B9B1
:10020000408142FB442740F9482B45B900000000DB
:1002100000000000000085B90000000000000000A0
:1002200000000000000095B9408146954170482BC0
:1002300045B90000000000000000000085B9000082
:1002400000000000000000000000000095B9000060
:1002500040814170482B45B90000000000000000BB
:10026000000085B9319764CF78940895FA015081E0
:100270004181A2819C0194E0220F331F9A95E1F7FE
:1002800080FD0DC0620F731FFB01EE0FFF1FE60F15
:10029000F71FEE56FD4FA483558346830895C90189
:1002A000861B970BBC01615F7F4FEECF90918F0251
:1002B0008091900220919102209305039093060370
:1002C0008093070320934103909342038093430359
:1002D00020936B0390936C0380936D032093BE0473
:1002E0009093BF048093C0042093E8049093E904A2
:1002F0008093EA0420932405909325058093260596
:1003000008959091890280918A0220918B02209316
:10031000110390931203809313032093140390937B
:10032000150380931603209335039093360380932F
:1003300037032093F4049093F5048093F6042093FC
:1003400018059093190580931A052093150590932D
:10035000160580931705089590918C0280918D0267
:1003600020918E022093DD039093DE038093DF03C0
:100370002093EC039093ED038093EE0320933D04D0
:1003800090933E0480933F0420934C0490934D043B
:1003900080934E0408950F931F93CF93DF93EC0146
:1003A0008C01075F1F4F49E852E0B80182E090E0FE
:1003B0000E9436012A9649E852E0BE0182E090E0B0
:1003C0000E94360149E852E0B80183E090E00E94C3
:1003D000360149E852E0BE0183E090E00E94360118
:1003E00049E852E0B8018CE090E00E94360149E80B
:1003F00052E0BE018CE090E00E94360149E852E0F4
:10040000B8018DE090E00E94360149E852E0BE015B
:100410008DE090E0DF91CF911F910F910C94360108
:100420000F931F93CF93DF93EC018C01045F1F4F59
:100430004CE852E0B80186E090E00E9436012D962B
:100440004CE852E0BE0187E090E00E9436014CE8A3
:1004500052E0BE0188E090E00E9436014CE852E094
:10046000B80189E090E0DF91CF911F910F910C943A
:100470003601089590918C0280918D0220918E0218
:100480002093EC039093ED038093EE0308959091F5
:10049000890280918A0220918B022093D802909346
:1004A000D9028093DA022093D5029093D6028093EA
:1004B000D70220930E0390930F0380931003209391
:1004C00011039093120380931303209314039093CA
:1004D00015038093160320931703909318038093BA
:1004E000190320933B0390933C0380933D03209397
:1004F00038039093390380933A0320933503909304
:100500003603809337032093320390933303809311
:1005100034032093710390937203809373032093A9
:10052000740390937503809376032093B80490939B
:10053000B9048093BA042093B5049093B6048093D1
:10054000B7042093EE049093EF048093F00420937B
:10055000F1049093F2048093F3042093F4049093B5
:10056000F5048093F6042093F7049093F8048093A5
:10057000F90420931B0590931C0580931D0520937F
:1005800018059093190580931A05209315059093EB
:1005900016058093170520931205909313058093F9
:1005A0001405209351059093520580935305209391
:1005B00054059093550580935605089590918C02AB
:1005C00080918D0220918E022093DD039093DE03B3
:1005D0008093DF032093EC039093ED038093EE036D
:1005E00020933D0490933E0480933F040895E1EBF3
:1005F000F0E02491EDE9F0E09491E9E8F0E0E49195
:10060000EE23C9F0222339F0233001F1A8F4213080
:1006100019F1223029F1F0E0EE0FFF1FEE58FF4FE5
:10062000A591B4912FB7F894EC91811126C09095C3
:100630009E239C932FBF08952730A9F02830C9F03E
:10064000243049F7209180002F7D03C02091800045
:100650002F7720938000DFCF24B52F7724BDDBCF09
:1006600024B52F7DFBCF2091B0002F772093B000D1
:10067000D2CF2091B0002F7DF9CF9E2BDACF90E022
:10068000FC01E057FF4F249184589F4FFC01849157
:10069000882399F090E0880F991FFC01E859FF4FDB
:1006A000A591B491FC01EE58FF4F859194918FB7BD
:1006B000F894EC91E22BEC938FBF0895AF92BF9228
:1006C000CF92DF92EF92FF920F931F93CF93DF931E
:1006D0006C017B018B01040F151FEB015E01AE184D
:1006E000BF08C017D10759F06991D601ED91FC916F
:1006F0000190F081E02DC6010995892B79F7C5019C
:10070000DF91CF911F910F91FF90EF90DF90CF90ED
:10071000BF90AF900895FC01538D448D252F30E09C
:10072000842F90E0821B930B541710F0CF960895FE
:1007300001970895FC01918D828D981761F0A28D2B
:10074000AE0FBF2FB11D5D968C91928D9F5F9F73F1
:10075000928F90E008958FEF9FEF0895FC01918DA7
:10076000828D981731F0828DE80FF11D858D90E014
:1007700008958FEF9FEF0895FC01918D228D892FB1
:1007800090E0805C9F4F821B91098F739927089599
:100790008FE791E00E94BC0321E0892B09F420E05F
:1007A000822F089580E090E0892B29F00E94C803F1
:1007B00081110C9400000895FC01A48DA80FB92F9D
:1007C000B11DA35ABF4F2C91848D90E001968F7379
:1007D0009927848FA689B7892C93A089B1898C9198
:1007E000837080648C93938D848D981306C00288E7
:1007F000F389E02D80818F7D80830895EF92FF92B1
:100800000F931F93CF93DF93EC0181E0888F9B8D33
:100810008C8D98131AC0E889F989808185FF15C0ED
:100820009FB7F894EE89FF896083E889F989808110
:100830008370806480839FBF81E090E0DF91CF91DF
:100840001F910F91FF90EF900895F62E0B8D10E001
:100850000F5F1F4F0F731127E02E8C8D8E110CC070
:100860000FB607FCFACFE889F989808185FFF5CFBB
:10087000CE010E94DC03F1CFEB8DEC0FFD2FF11DBB
:10088000E35AFF4FF0829FB7F8940B8FEA89FB89F8
:1008900080818062CFCFCF93DF93EC01888D882356
:1008A000B9F0AA89BB89E889F9898C9185FD03C0D3
:1008B000808186FD0DC00FB607FCF7CF8C9185FFB8
:1008C000F2CF808185FFEDCFCE010E94DC03E9CF1E
:1008D000DF91CF9108953FB7F89480917501909181
:1008E0007601A0917701B091780126B5A89B05C04B
:1008F0002F3F19F00196A11DB11D3FBFBA2FA92F9F
:10090000982F8827BC01CD01620F711D811D911D9B
:1009100042E0660F771F881F991F4A95D1F7089507
:100920008F929F92AF92BF92CF92DF92EF92FF92FF
:100930000E9488000E946B044B015C0184E6C82E73
:10094000D12CE12CF12C0E946B04681979098A09D9
:100950009B09683E734081059105A8F321E0C21A06
:10096000D108E108F10838EE830E33E0931EA11C94
:10097000B11CC114D104E104F10429F7E6E9F2E065
:1009800080E093E0DF019C011D9221503040E1F7AF
:10099000FF90EF90DF90CF90BF90AF909F908F909F
:1009A00008950E94AC010E9481010E9456010C949E
:1009B00090040E94AC010E94810190918F0280916D
:1009C00090022091910220934103909342038093DF
:1009D000430320936B0390936C0380936D032093E8
:1009E000BE049093BF048093C0042093E8049093C6
:1009F000E9048093EA040C94900490E080E00E9463
:100A0000CB010E94AC010C9490040E94FD049091D3
:100A10008F02809190022091910220936B0390931A
:100A20006C0380936D032093BE049093BF04809366
:100A3000C0040C9490049091890280918A022091C4
:100A40008B02209314039093150380931603209335
:100A5000350390933603809337032093F4049093E7
:100A6000F5048093F6042093150590931605809362
:100A7000170590E080E00E9410020C9490040E9400
:100A80001B0590E080E00E9410020C941B050E9460
:100A9000AC010E9456019091890280918A022091B6
:100AA0008B022093140390931503809316032093D5
:100AB000350390933603809337032093F404909387
:100AC000F5048093F6042093150590931605809302
:100AD00017050C9490040E9447050E94AC010E94E7
:100AE00056010E9490040C9447052F923F924F921A
:100AF0005F926F927F928F929F92AF92BF92CF92AE
:100B0000DF92EF92FF920F931F93CF93DF938FE8C3
:100B1000E82E82E0F82EF701108200E912E0F801D9
:100B20001082C1E9D2E085E0888399E8692E92E0DD
:100B3000792EF30190812AE8422E22E0522EF20112
:100B400080813BE8232E32E0332EF1012081209377
:100B5000D8029093D9028093DA022093D502909321
:100B6000D6028093D70220931103909312038093AF
:100B70001303209314039093150380931603E7E166
:100B8000F3E02083E8E1F3E09083E9E1F3E08083A0
:100B9000209338039093390380933A0320933503CD
:100BA0009093360380933703E2E3F3E02083E3E39B
:100BB000F3E09083E4E3F3E0808320937103909368
:100BC000720380937303209374039093750380934F
:100BD00076032093B8049093B9048093BA042093C9
:100BE000B5049093B6048093B7042093F1049093D6
:100BF000F2048093F3042093F4049093F50480931B
:100C0000F604E7EFF4E02083E8EFF4E09083E9EF07
:100C1000F4E08083209318059093190580931A05BA
:100C200020931505909316058093170542E1842EB5
:100C300045E0942EF401208353E1A52E55E0B52E16
:100C4000F501908364E1C62E65E0D62EF60180831F
:100C5000209351059093520580935305209354059A
:100C600090935505809356050E943A02F7019081B2
:100C7000F801808128812093E7029093E802809315
:100C8000E9022093020390930303809304032093CB
:100C9000470390934803809349032093E204909381
:100CA000E3048093E4042093270590932805809320
:100CB00029052093420590934305809344050E94A3
:100CC0009004F3019081F2018081F1012081E7E13C
:100CD000F3E02083E8E1F3E09083E9E1F3E080834F
:100CE000E2E3F3E02083E3E3F3E09083E4E3F3E083
:100CF0008083E7EFF4E02083E8EFF4E09083E9EF0E
:100D0000F4E08083F4012083F5019083F601808371
:100D10000E943A02F7019081F80180812881209396
:100D2000E4029093E5028093E602209305039093FA
:100D30000603809307032093440390934503809315
:100D400046032093E5049093E6048093E704209300
:100D500024059093250580932605209345059093BF
:100D60004605809347050E9490040E943A02F701CD
:100D70009081F801808128812093E1029093E20222
:100D80008093E302209308039093090380930A035E
:100D90002093410390934203809343032093E804FC
:100DA0009093E9048093EA0420932105909322050F
:100DB00080932305209348059093490580934A0525
:100DC0000E949004F3019081F2018081F101208161
:100DD000E7E1F3E02083E8E1F3E09083E9E1F3E089
:100DE0008083E2E3F3E02083E3E3F3E09083E4E352
:100DF000F3E08083E7EFF4E02083E8EFF4E0908312
:100E0000E9EFF4E08083F4012083F5019083F6019B
:100E1000808390918C0280918D0220918E0220938C
:100E2000EF039093F0038093F1032093EC039093EE
:100E3000ED038093EE0320933A0490933B04809358
:100E40003C0420933D0490933E0480933F04F701BB
:100E50009081F801808128812093DE029093DF0247
:100E60008093E00220930B0390930C0380930D0377
:100E700020931E0590931F058093200520934B051A
:100E800090934C0580934D05DF91CF911F910F9169
:100E9000FF90EF90DF90CF90BF90AF909F908F909A
:100EA0007F906F905F904F903F902F900C949004A4
:100EB0009091890280918A0220918B022093D8021E
:100EC0009093D9028093DA0220930E0390930F033C
:100ED0008093100320933B0390933C0380933D0346
:100EE0002093710390937203809373032093B8044B
:100EF0009093B9048093BA042093EE049093EF0486
:100F00008093F00420931B0590931C0580931D058E
:100F100020935105909352058093530590E080E013
:100F20000E9410020C9490040E94580791E0909344
:100F3000D20285E08093D3021092D40290931703DB
:100F40008093180310921903909312058093130550
:100F500010921405909357058093580510925905E7
:100F60000C9490049091890280918A0220918B02C6
:100F7000209311039093120380931303209338035B
:100F80009093390380933A032093F1049093F204F1
:100F90008093F304209318059093190580931A0504
:100FA00090E080E00E9410020C9490040E94DE0207
:100FB0009091890280918A0220918B0220931703DD
:100FC000909318038093190320933503909336036D
:100FD0008093370320933203909333038093340339
:100FE0002093F4049093F5048093F6042093F7047F
:100FF0009093F8048093F9042093120590931305BD
:101000008093140590918F0280919002209191021B
:1010100020930E0390930F038093100320933E03BD
:1010200090933F038093400320936B0390936C0352
:1010300080936D032093A1039093A2038093A30355
:10104000209388049093890480938A042093BE049B
:101050009093BF048093C0042093EB049093EC041E
:101060008093ED0420931B0590931C0580931D0530
:101070000C9490040E94DE029091890280918A0271
:1010800020918B02209317039093180380931903E8
:1010900020933503909336038093370320933203D4
:1010A00090933303809334032093F4049093F504D6
:1010B0008093F6042093F7049093F8048093F90446
:1010C00020931205909313058093140590918F023D
:1010D000809190022091910220930E0390930F0330
:1010E0008093100320933E0390933F03809340032B
:1010F00020936B0390936C0380936D032093BE0445
:101100009093BF048093C0042093EB049093EC046D
:101110008093ED0420931B0590931C0580931D057F
:101120000C9490040E94DE029091890280918A02C0
:1011300020918B0220931703909318038093190337
:101140002093350390933603809337032093320323
:1011500090933303809334032093F4049093F50425
:101160008093F6042093F7049093F8048093F90495
:1011700020931205909313058093140590918F028C
:10118000809190022091910220930E0390930F037F
:101190008093100320931B0590931C0580931D05DD
:1011A0000C9490040E94DE0281E090E00E94CB014A
:1011B0000C9490040E94DE029091890280918A0230
:1011C00020918B02209314039093150380931603B0
:1011D0002093350390933603809337032093F404D0
:1011E0009093F5048093F6042093150590931605CB
:1011F000809317050C9490040E94DE02909189025E
:1012000080918A0220918B022093170390931803F8
:101210008093190320933203909333038093340314
:101220002093F7049093F8048093F9042093120517
:10123000909313058093140590918F0280919002F2
:101240002091910220931103909312038093130332
:1012500020933B0390933C0380933D0320936E03C4
:1012600090936F038093700320939E0390939F034A
:101270008093A00320938B0490938C0480938D041F
:101280002093BB049093BC048093BD042093EE0490
:101290009093EF048093F004209318059093190520
:1012A00080931A050C949004CF93DF93EC010E9475
:1012B000CB01CE010E941002DF91CF910C949004DB
:1012C000FC0180819181009711F00C946E140895B7
:1012D00020912602309127028091200290912102D4
:1012E00028173907F1F4809122029091230260912E
:1012F0001C0270911D020097D1F061157105A1F4D7
:10130000232BC1F0FC01808190E008C0232B91F0D9
:10131000FB01808190E091958195910921E0892BD5
:1013200009F020E0822F08950E94BD15F7CF6115C6
:10133000710561F721E0F6CF209120023091210262
:10134000232B39F421E0FC018081882361F020E027
:101350000AC0BC0180911C0290911D020E94BD1523
:1013600021E0892BA1F7822F0895EF92FF920F932E
:101370001F93CF93DF93EC017B018A0188819981D0
:10138000009729F02A813B812417350788F4B8019A
:101390006F5F7F4F0E94F714009791F099838883C5
:1013A0001B830A832C813D81232B11F4FC011082C5
:1013B0001D830C83B701888199810E94C6150CC0DA
:1013C00088819981009711F00E946E141982188209
:1013D0001D821C821B821A82CE01DF91CF911F9148
:1013E0000F91FF90EF900895FB0101900020E9F725
:1013F0003197AF01461B570B0C94B509FC011182C4
:10140000108213821282158214826115710551F0C7
:10141000FB0101900020E9F73197AF01461B570B04
:101420000C94B5090895FF920F931F93CF93DF9308
:1014300000D000D000D0CDB7DEB701E08FE1F82EAC
:101440008FE791E00E94BC031091880218161906DC
:101450004CF5111127C08FE791E00E949A039091FB
:101460007E019923D1F090917D01E92FF0E0E45EB7
:10147000FD4F8E3351F084879F5F903218F0F092C9
:101480007D01DECF90937D01DBCF148610927E012B
:1014900010927D0100938802D3CF8C3389F600939C
:1014A0007E01CECF1123D9F168E272E088E492E0A8
:1014B0000E94C6156BE171E088E492E00E94691316
:1014C000BC0188E692E00E94C61568E672E0CE0193
:1014D00001960E94FE0980911C0290911D020097C6
:1014E00069F169817A816115710531F140911E02BE
:1014F00050911F022D813E8142175307E8F00E9450
:10150000C6158D819E8190932102809320021E82B8
:101510001D82CE0101960E94600910928802812FDF
:1015200026960FB6F894DEBF0FBECDBFDF91CF91E8
:101530001F910F91FF9008950E946E1489819A81E6
:1015400090931D0280931C028B819C8190931F02BB
:1015500080931E028D819E819093210280932002B0
:101560001A8219821C821B82D2CF1F920F920FB651
:101570000F9211242F933F934F935F936F937F9319
:101580008F939F93AF93BF93EF93FF938FE791E078
:101590000E94DC03FF91EF91BF91AF919F918F91DA
:1015A0007F916F915F914F913F912F910F900FBE5F
:1015B0000F901F9018951F920F920FB60F92112443
:1015C0002F938F939F93EF93FF93E0918F01F0916F
:1015D00090018081E0919501F091960182FD1BC000
:1015E0009081809198018F5F8F732091990182176C
:1015F00041F0E0919801F0E0E158FE4F958F809323
:101600009801FF91EF919F918F912F910F900FBEB5
:101610000F901F9018958081F4CF1F920F920FB6F4
:101620000F9211242F933F938F939F93AF93BF9368
:101630008091790190917A01A0917B01B0917C0118
:101640003091740123E0230F2D3758F50196A11D29
:10165000B11D209374018093790190937A01A09336
:101660007B01B0937C018091750190917601A091EE
:101670007701B09178010196A11DB11D809375018C
:1016800090937601A0937701B0937801BF91AF91C9
:101690009F918F913F912F910F900FBE0F901F90B0
:1016A000189526E8230F0296A11DB11DD2CF1092E6
:1016B00082011092810188EE93E0A0E0B0E0809377
:1016C000830190938401A0938501B09386018DE0FE
:1016D00091E09093800180937F0185EC90E090935E
:1016E0008C0180938B0184EC90E090938E01809329
:1016F0008D0180EC90E09093900180938F0181ECBC
:1017000090E0909392018093910182EC90E090930D
:1017100094018093930186EC90E0909396018093DE
:101720009501109298011092990110929A011092CD
:101730009B016DE271E08CE192E00E94FE096DE296
:1017400071E082E292E00E94FE09E8E6F2E080E2C7
:10175000DF011D928A95E9F71092880210928902A2
:1017600010928A0284E680938B0280910601909108
:101770000701A091080180938C0290938D02A093A1
:101780008E028AE080938F02109290021092910252
:1017900080E091E0909395028093940288E090E03D
:1017A0009093930280939202E6E9F2E080E093E066
:1017B000DF019C011D9221503040E1F70E9488001A
:1017C0006DE171E08CE192E00E94F40960911C02ED
:1017D00070911D026115710541F0409120025091F8
:1017E000210282E292E00C94B5098091220290914C
:1017F0002302009711F00E946E141092230210929F
:1018000022021092270210922602109225021092B4
:1018100024020895789484B5826084BD84B5816083
:1018200084BD85B5826085BD85B5816085BD8091AB
:101830006E00816080936E00109281008091810023
:10184000826080938100809181008160809381001B
:10185000809180008160809380008091B1008460DD
:101860008093B1008091B00081608093B00080913E
:101870007A00846080937A0080917A0082608093FD
:101880007A0080917A00816080937A0080917A005A
:10189000806880937A001092C10088E00E943F0324
:1018A0008DE00E943F03E0918F01F091900182E072
:1018B0008083E0918B01F0918C011082E0918D0189
:1018C000F0918E018FEC808310929701E09193014B
:1018D000F091940186E08083E0919101F091920172
:1018E000808180618083E0919101F09192018081FB
:1018F00088608083E0919101F091920180818068FD
:101900008083E0919101F091920180818F7D8083AD
:1019100081E00E94F7028FE791E00E94BC03181655
:101920001906CCF78FE791E00E949A03893681F47B
:1019300045E050E065E271E08FE791E00E945E03D0
:1019400042E050E06BE271E08FE791E00E945E03BD
:101950008FB7F894C0907901D0907A01E0907B0124
:10196000F0907C018FBF0D2C000CEE08FF088FE774
:1019700091E00E94BC0318161906ACF02FB7F8943A
:101980008091790190917A01A0917B01B0917C01C5
:101990002FBF8C199D09AE09BF09893E9340A1054F
:1019A000B10528F3B8CF8FE791E00E949A038436FF
:1019B00009F0B1CF80E00E94F702C0E0CC2EC0E079
:1019C000DC2E03E015E0DAE0CEE18CE3B82E94E6FD
:1019D000692E7AE5772EE9E18E2EF2E39F2EABE4B5
:1019E000AA2EB8E75B2E8DE191E00E949C09882326
:1019F00009F4CDC26DE171E082E292E00E94F40947
:101A000090918C0280918D0220918E022093CB03C5
:101A10009093CC038093CD032093CE039093CF0378
:101A20008093D0032093F8039093F9038093FA03F3
:101A30000E94900490918C0280918D0220918E02E0
:101A40002093CE039093CF038093D0032093F80389
:101A50009093F9038093FA03209331049093320416
:101A6000809333040E94900490918C0280918D02A7
:101A700020918E022093F8039093F9038093FA0348
:101A800020933104909332048093330420935B04B9
:101A900090935C0480935D040E94900490918C026A
:101AA00080918D0220918E02209331049093320414
:101AB0008093330420935E0490935F0480936004CA
:101AC00020935B0490935C0480935D040E949004D7
:101AD00090918C0280918D0220918E022093280497
:101AE0009093290480932A0420935E0490935F04CA
:101AF0008093600420935B0490935C0480935D0466
:101B00000E94900490918C0280918D0220918E020F
:101B100020930104909302048093030420932804EB
:101B20009093290480932A0420935E0490935F0489
:101B3000809360040E94900490918C0280918D02A9
:101B400020918E022093CB039093CC038093CD03FE
:101B500020930104909302048093030420932804AB
:101B60009093290480932A040E94900490918C02FF
:101B700080918D0220918E022093CB039093CC0311
:101B80008093CD032093CE039093CF038093D00313
:101B90002093010490930204809303040E94900414
:101BA0000E94130A882309F4F2C190918C0280915B
:101BB0008D0220918E022093CE039093CF038093C9
:101BC000D0032093D1039093D2038093D303209327
:101BD000D4039093D5038093D6030E9490049091F0
:101BE0008C0280918D0220918E022093D4039093D9
:101BF000D5038093D6032093D7039093D803809383
:101C0000D9032093DA039093DB038093DC030E94D3
:101C1000900490918C0280918D0220918E022093ED
:101C2000D7039093D8038093D9032093DA0390933A
:101C3000DB038093DC032093EC039093ED0380930C
:101C4000EE030E94900490918C0280918D0220916D
:101C50008E022093DA039093DB038093DC032093BE
:101C6000EC039093ED038093EE0320933D04909357
:101C70003E0480933F040E949004109289021092C7
:101C80008A0200938B0290918C0280918D022091A8
:101C90008E022093EC039093ED038093EE03209348
:101CA0003D0490933E0480933F0420934F0490930F
:101CB0005004809351040093F2031092F3031092A6
:101CC000F4030093370410923804109239040E94F0
:101CD000900490918C0280918D0220918E0220932D
:101CE0003D0490933E0480933F04209352049093CC
:101CF00053048093540420934F0490935004809392
:101D000051049091890280918A0220918B02209344
:101D1000D4039093D5038093D603209355049093D6
:101D20005604809357040E94900490918C028091F5
:101D30008D0220918E022093340490933504809379
:101D400036042093520490935304809354042093B8
:101D50004F04909350048093510490918902809194
:101D60008A0220918B02209395039093960380938F
:101D700097032093940490939504809396040E9473
:101D8000900490918C0280918D0220918E0220937C
:101D9000F5039093F6038093F70320933404909314
:101DA0003504809336042093520490935304809317
:101DB00054049091890280918A0220918B02209391
:101DC000740390937503809376032093B5049093E6
:101DD000B6048093B7040E94900410928902109276
:101DE0008A0210938B0290918C0280918D02209137
:101DF0008E022093D7039093D8038093D903209326
:101E0000F5039093F6038093F703209334049093A3
:101E100035048093360410933503109236031092E4
:101E200037031093F4041092F5041092F6040E9404
:101E300090041092890210928A02D0938B029091A2
:101E40008C0280918D0220918E022093D703909373
:101E5000D8038093D9032093DA039093DB03809314
:101E6000DC032093F5039093F6038093F703D0935C
:101E700014031092150310921603D0933503109299
:101E8000360310923703D093F4041092F5041092A5
:101E9000F604D093150510921605109217050E94AE
:101EA00090041092890210928A02C0938B02909142
:101EB0008C0280918D0220918E022093D703909303
:101EC000D8038093D9032093DA039093DB038093A4
:101ED000DC032093EC039093ED038093EE03C09317
:101EE00014031092150310921603C0933803109236
:101EF000390310923A03C0933503109236031092BF
:101F00003703C093F1041092F2041092F304C093CB
:101F1000F4041092F5041092F604C0931505109283
:101F20001605109217050E949004109289021092D3
:101F30008A02B0928B0290918C0280918D02209146
:101F40008E022093DA039093DB038093DC032093CB
:101F5000EC039093ED038093EE0320933D04909364
:101F60003E0480933F0490E080E00E94CB010E94F9
:101F700090041092890210928A0260928B0290E083
:101F800080E00E9454090E943F050E94130A8EE2DD
:101F900091E00E949C098823C1F06EE271E082E228
:101FA00092E00E94F40964E1E62EF12C90E080E0DA
:101FB0000E9454090E94130A81119BC081E0E81A13
:101FC000F108A1F70E943F0594C084E391E00E94CC
:101FD0009C09882309F4A0C00E94680981114EC0A1
:101FE000D0938F0210929002109291020E941B05D2
:101FF00090E080E00E9410029091890280918A0214
:1020000020918B0220931403909315038093160361
:102010002093350390933603809337032093F40481
:102020009093F5048093F60420931505909316057C
:10203000809317050E94AC010E949004C09389020E
:1020400010928A02A0928B020E94FD04B092890233
:1020500010928A0290928B020E940505709289026A
:1020600010928A0280928B020E94D90450928902B7
:1020700010928A0210928B020E94D10464E371E0F4
:1020800082E292E00E94F409D0938F0210929002B3
:102090001092910254E1E52EF12C0E94D1040E948D
:1020A000130A882391F1D0938F021092900210921C
:1020B00091020E946B057092890210928A028092AE
:1020C0008B020E94D904B092890210928A029092E7
:1020D0008B020E940505C093890210928A02A09289
:1020E0008B020E94FD041092890210928A02609273
:1020F0008B02C114D10409F476CC0E94C803882352
:1021000009F467CC0E94000064CC21E0E21AF108D7
:1021100021F60E946B05EDCF8AE391E00E949C09B5
:10212000882309F461C10E946809811112C11092CB
:102130008F02109290021093910290E080E00E9432
:10214000CB0190918C0280918D0220918E02209380
:10215000EF039093F0038093F1032093EC039093AB
:10216000ED038093EE0320933A0490933B04809315
:102170003C0420933D0490933E0480933F040E94CE
:1021800090049091890280918A0220918B02209381
:10219000D8029093D9028093DA022093D5029093CB
:1021A000D6028093D70220930E0390930F0380935F
:1021B0001003209311039093120380931303209331
:1021C0001403909315038093160320933B0390937D
:1021D0003C0380933D03209338039093390380930D
:1021E0003A0320933503909336038093370320936B
:1021F000EE049093EF048093F0042093F104909305
:10220000F2048093F3042093F4049093F5048093F4
:10221000F60420931B0590931C0580931D052093C5
:1022200018059093190580931A052093150590932E
:1022300016058093170520935105909352058093BE
:1022400053052093540590935505809356050E949D
:102250003A0290918F0280919002209191022093F6
:102260000B0390930C0380930D0320933E039093F4
:102270003F03809340032093EB049093EC048093FE
:10228000ED0420931E0590931F05809320050E9466
:1022900090040E9447020E943A0290918F0280911E
:1022A0009002209191022093E1029093E2028093A8
:1022B000E302209308039093090380930A03209379
:1022C000410390934203809343032093E804909347
:1022D000E9048093EA0420932105909322058093DA
:1022E0002305209348059093490580934A050E9451
:1022F00090040E9447020E943A0290918F028091BE
:102300009002209191022093E4029093E502809341
:10231000E60220930503909306038093070320931E
:10232000440390934503809346032093E5049093E0
:10233000E6048093E7042093240590932505809379
:1023400026052093450590934605809347050E94F6
:1023500090046AE371E082E292E00E94F40944E1B1
:10236000E42EF12C0E9447020E943A0290918F02C3
:1023700080919002209191022093E7029093E802CD
:102380008093E90220930203909303038093040354
:102390002093470390934803809349032093E204DA
:1023A0009093E3048093E4042093270590932805F9
:1023B000809329052093420590934305809344051B
:1023C0000E9490040E94130A882319F00E94750548
:1023D00090CE81E0E81AF10829F663E471E08CE11F
:1023E00092E00E94F409F2CF81E591E00E949C09FD
:1023F000882359F10E946809811108C00E943F0595
:102400000E94B2070E9458070E94940761E571E09C
:1024100082E292E00E94F40934E1E32EF12C0E9462
:1024200094070E94130A882329F00E9458070E94EB
:10243000B207C8CD21E0E21AF10889F763E471E040
:102440008CE192E00E94F409F0CF80E691E00E94D6
:102450009C09882309F47FC00E946809811114C077
:1024600010928F0210929002109391020E94DA084B
:102470000E94DE020E9490040E94D2080E949208EC
:102480000E943A080E94D60760E671E082E292E07C
:102490000E94F40924E1E22EF12C0E94D6070E944A
:1024A000130A8823A9F010928F02109290021093C1
:1024B00091020E94D6070E943A080E9492080E9448
:1024C000D2080E94DE020E9490040E94DA0811CE17
:1024D00081E0E81AF10809F70E94FC080E94DE0278
:1024E00090918F028091900220919102209311038C
:1024F000909312038093130320933B0390933C0328
:1025000080933D0320936E0390936F038093700339
:1025100020939E0390939F038093A00320938B04AA
:1025200090938C0480938D042093BB049093BC04FF
:102530008093BD042093EE049093EF048093F00405
:10254000209318059093190580931A050E94900412
:102550000E94FC08CECD84E691E00E949C0988236D
:1025600009F462C064E671E082E292E00E94F4093C
:1025700094E1E92EF12C90E080E00E94CB010E94D2
:10258000DE020E9490040E94130A8111B2CD21E064
:10259000E21AF10881F79091890280918A022091D4
:1025A0008B022093140390931503809316032093BA
:1025B000350390933603809337032093F40490936C
:1025C000F5048093F60420931505909316058093E7
:1025D00017050E94DE020E9490040E94DE020E9403
:1025E00090049091890280918A0220918B0220931D
:1025F000140390931503809316032093350390934F
:102600003603809337032093F4049093F50480936A
:10261000F6042093150590931605809317050E94E4
:10262000DE020E94900465CD8CE691E00E949C0938
:10263000882309F45ECD6CE671E082E292E00E94AC
:10264000F409F12CE12CC7010E94540981E0E81A39
:10265000F10827EFE2162FEFF206A9F787EF9FEFB9
:102660000E94CB0186EF9FEF0E9410020E9490040F
:1026700087EFE82EFF24FA94C7010E945409E11461
:10268000F104D1F08FEFE81AF80A22E0E216F10423
:1026900099F783E090E00E94CB0182E090E00E94F5
:1026A00010020E94900482E090E00E94540981E0B0
:1026B00090E00E9454091DCD0E94130A882311F353
:1026C00018CD82E292E00E9460098CE192E00C94C5
:1026D000600946E955E00E946E130895FA01A19140
:1026E000B081009719F41097E1F0CD01DC01CD0124
:1026F0000D90002011F4C00113C0FB012191222391
:1027000019F02015D9F7F3CFFB012191201519F409
:102710001E92119606C02223C1F70D900020A1F74A
:10272000D001FA01A193B08308952F923F924F9266
:102730005F926F927F928F929F92AF92BF92CF9251
:10274000DF92EF92FF920F931F93CF93DF93CDB75A
:10275000DEB7CA1BDB0B0FB6F894DEBF0FBECDBFD2
:1027600009942A88398848885F846E847D848C84A3
:102770009B84AA84B984C884DF80EE80FD800C81AC
:102780001B81AA81B981CE0FD11D0FB6F894DEBF8F
:102790000FBECDBFED010895EE0FFF1F0590F49120
:1027A000E02D09940F931F93CF93DF93823091050F
:1027B00010F482E090E0E0919A05F0919B0530E002
:1027C00020E0B0E0A0E0309799F42115310509F43C
:1027D0004AC0281B390B24303105D8F58A819B81EA
:1027E0006115710589F1FB0193838283FE0111C09C
:1027F000408151810281138148175907E0F0481741
:10280000590799F4109761F012960C93129713964A
:102810001C933296CF01DF91CF911F910F910895B4
:1028200000939A0510939B05F4CF2115310551F0C3
:102830004217530738F0A901DB019A01BD01DF01FE
:10284000F801C1CFEF01F9CF90939B0580939A05D2
:10285000CDCFFE01E20FF31F8193919322503109F6
:1028600039832883D7CF2091980530919905232B60
:1028700041F4209102013091030130939905209396
:10288000980520910001309101012115310541F495
:102890002DB73EB74091040150910501241B350B23
:1028A000E0919805F0919905E217F307A0F42E1B2B
:1028B0003F0B2817390778F0AC014E5F5F4F2417A4
:1028C000350748F04E0F5F1F5093990540939805C8
:1028D000819391939FCFF0E0E0E09CCFCF93DF9383
:1028E0000097E9F0FC01329713821282A0919A05B9
:1028F000B0919B05ED0130E020E01097A1F420811C
:102900003181820F931F20919805309199052817E6
:10291000390709F061C0F0939905E0939805DF91BC
:10292000CF910895EA01CE17DF07E8F54A815B8170
:102930009E0141155105B1F7E901FB83EA834991F5
:102940005991C40FD51FEC17FD0761F48081918167
:102950000296840F951FE901998388838281938170
:102960009B838A83F0E0E0E012968D919C9113970F
:102970000097B9F52D913C911197CD010296820FE8
:10298000931F20919805309199052817390739F63A
:10299000309751F510929B0510929A05B0939905C6
:1029A000A0939805BCCFD383C28340815181840F0B
:1029B000951FC817D90761F44E5F5F4F88819981D1
:1029C000480F591F518340838A819B81938382835F
:1029D0002115310509F0B0CFF0939B05E0939A05DE
:1029E0009ECFFD01DC01C0CF13821282D7CFB0E0B1
:1029F000A0E0EDEFF4E10C9497138C01009751F4F3
:102A0000CB010E94D2138C01C801CDB7DEB7E0E143
:102A10000C94B313FC01E60FF71F9C0122503109FF
:102A2000E217F30708F49DC0D901CD91DC9111970D
:102A3000C617D70798F0C530D10530F3CE010497FB
:102A40008617970708F3C61BD70B2297C193D1931C
:102A50006D937C93CF010E946E14D6CF5B01AC1AAC
:102A6000BD0A4C018C0E9D1EA0919A05B0919B054C
:102A7000512C412CF12CE12C109731F580919805C7
:102A8000909199058815990509F05CC0461657067E
:102A900008F058C08091000190910101009741F425
:102AA0008DB79EB74091040150910501841B950B91
:102AB000E817F90708F055C0F0939905E0939805D9
:102AC000F90171836083A0CF8D919C91119712962B
:102AD0006C90129713967C901397A815B90559F529
:102AE0006C0142E0C40ED11CCA14DB0420F1AC011D
:102AF0004A195B09DA011296159780F06282738297
:102B000051834083D9016D937C93E114F10471F0FA
:102B1000D7011396FC93EE93129776CF22968C0FE3
:102B20009D1FF90191838083F301EFCFF0939B0503
:102B3000E0939A0569CF4816590608F42C017D01E7
:102B4000D3019ACFCB010E94D2137C01009749F0A8
:102B5000AE01B8010E94B415C8010E946E1487012D
:102B600053CF10E000E050CFFB01DC0102C0019028
:102B70000D9241505040D8F70895FB01DC018D9132
:102B8000019080190110D9F3990B0895FB01DC0124
:102B900001900D920020E1F7089510E0CDE5D0E01E
:102BA00004C0FE010E94CC132196CE35D107C9F78F
:042BB000F894FFCFC7
:102BB40000009C0580000A0A0A00000000FE035E73
:102BC400038B034B04BC039A03AE032C006C6F61AC
:102BD40064696E67006D6F746F72000D0A0068613E
:102BE40070707900616E67727900737572707269C2
:102BF40073650068617070795F7374616E64627983
:102C04000068617070795F656D70686173697300E5
:102C1400736164006E65757472616C00626F756EC9
:042C240063650000E4
:00000001FF
